{
  "contractName": "KomgoOnboarder",
  "abi": [
    {
      "constant": true,
      "inputs": [
        {
          "name": "",
          "type": "uint256"
        }
      ],
      "name": "companiesNodes",
      "outputs": [
        {
          "name": "",
          "type": "bytes32"
        }
      ],
      "payable": false,
      "stateMutability": "view",
      "type": "function"
    },
    {
      "constant": true,
      "inputs": [],
      "name": "owner",
      "outputs": [
        {
          "name": "",
          "type": "address"
        }
      ],
      "payable": false,
      "stateMutability": "view",
      "type": "function"
    },
    {
      "constant": false,
      "inputs": [
        {
          "name": "_newOwner",
          "type": "address"
        }
      ],
      "name": "transferOwnership",
      "outputs": [],
      "payable": false,
      "stateMutability": "nonpayable",
      "type": "function"
    },
    {
      "inputs": [
        {
          "name": "_ensAddress",
          "type": "address"
        }
      ],
      "payable": false,
      "stateMutability": "nonpayable",
      "type": "constructor"
    },
    {
      "anonymous": false,
      "inputs": [
        {
          "indexed": true,
          "name": "previousOwner",
          "type": "address"
        },
        {
          "indexed": true,
          "name": "newOwner",
          "type": "address"
        }
      ],
      "name": "OwnershipTransferred",
      "type": "event"
    },
    {
      "constant": false,
      "inputs": [
        {
          "components": [
            {
              "name": "node",
              "type": "bytes32"
            },
            {
              "components": [
                {
                  "components": [
                    {
                      "name": "x",
                      "type": "bytes32"
                    },
                    {
                      "name": "y",
                      "type": "bytes32"
                    }
                  ],
                  "name": "publicKey",
                  "type": "tuple"
                },
                {
                  "name": "termDate",
                  "type": "uint256"
                }
              ],
              "name": "ethPubKeys",
              "type": "tuple"
            },
            {
              "components": [
                {
                  "name": "key",
                  "type": "string"
                },
                {
                  "name": "value",
                  "type": "string"
                }
              ],
              "name": "textEntries",
              "type": "tuple[]"
            },
            {
              "components": [
                {
                  "name": "key",
                  "type": "string"
                },
                {
                  "name": "value",
                  "type": "bool"
                }
              ],
              "name": "booleanEntries",
              "type": "tuple[]"
            }
          ],
          "name": "_onboardInformation",
          "type": "tuple"
        }
      ],
      "name": "addCompanyOnboardingInformation",
      "outputs": [
        {
          "name": "",
          "type": "bool"
        }
      ],
      "payable": false,
      "stateMutability": "nonpayable",
      "type": "function"
    },
    {
      "constant": false,
      "inputs": [
        {
          "components": [
            {
              "name": "node",
              "type": "bytes32"
            },
            {
              "components": [
                {
                  "components": [
                    {
                      "name": "x",
                      "type": "bytes32"
                    },
                    {
                      "name": "y",
                      "type": "bytes32"
                    }
                  ],
                  "name": "publicKey",
                  "type": "tuple"
                },
                {
                  "name": "termDate",
                  "type": "uint256"
                }
              ],
              "name": "ethPubKeys",
              "type": "tuple"
            },
            {
              "components": [
                {
                  "name": "key",
                  "type": "string"
                },
                {
                  "name": "value",
                  "type": "string"
                }
              ],
              "name": "textEntries",
              "type": "tuple[]"
            },
            {
              "components": [
                {
                  "name": "key",
                  "type": "string"
                },
                {
                  "name": "value",
                  "type": "bool"
                }
              ],
              "name": "booleanEntries",
              "type": "tuple[]"
            }
          ],
          "name": "_onboardInformation",
          "type": "tuple[]"
        }
      ],
      "name": "addCompaniesOnboardingInformation",
      "outputs": [
        {
          "name": "",
          "type": "bool"
        }
      ],
      "payable": false,
      "stateMutability": "nonpayable",
      "type": "function"
    }
  ],
  "bytecode": "0x60806040527f91d1777781884d03a6757a803996e38de2a42967fb37eeaca72729271025a9e260010260019060001916905534801561003d57600080fd5b5060405160208062000f75833981018060405261005d9190810190610209565b6000336000806101000a81548173ffffffffffffffffffffffffffffffffffffffff021916908373ffffffffffffffffffffffffffffffffffffffff16021790555081600260006101000a81548173ffffffffffffffffffffffffffffffffffffffff021916908373ffffffffffffffffffffffffffffffffffffffff160217905550600260009054906101000a900473ffffffffffffffffffffffffffffffffffffffff1673ffffffffffffffffffffffffffffffffffffffff16630178b8bf6001546040518263ffffffff167c01000000000000000000000000000000000000000000000000000000000281526004016101599190610241565b602060405180830381600087803b15801561017357600080fd5b505af1158015610187573d6000803e3d6000fd5b505050506040513d601f19601f820116820180604052506101ab9190810190610209565b905080600360006101000a81548173ffffffffffffffffffffffffffffffffffffffff021916908373ffffffffffffffffffffffffffffffffffffffff1602179055505050610286565b60006102018251610266565b905092915050565b60006020828403121561021b57600080fd5b6000610229848285016101f5565b91505092915050565b61023b8161025c565b82525050565b60006020820190506102566000830184610232565b92915050565b6000819050919050565b600073ffffffffffffffffffffffffffffffffffffffff82169050919050565b610cdf80620002966000396000f30060806040526004361061006d576000357c0100000000000000000000000000000000000000000000000000000000900463ffffffff168063333a8307146100725780634d215223146100af5780638da5cb5b146100ec5780639e4e892314610117578063f2fde38b14610154575b600080fd5b34801561007e57600080fd5b50610099600480360361009491908101906109d4565b61017d565b6040516100a69190610af4565b60405180910390f35b3480156100bb57600080fd5b506100d660048036036100d19190810190610952565b6101a0565b6040516100e39190610ad9565b60405180910390f35b3480156100f857600080fd5b506101016101f0565b60405161010e9190610abe565b60405180910390f35b34801561012357600080fd5b5061013e60048036036101399190810190610993565b610215565b60405161014b9190610ad9565b60405180910390f35b34801561016057600080fd5b5061017b60048036036101769190810190610929565b610300565b005b60068181548110151561018c57fe5b906000526020600020016000915090505481565b60008082511115156101e7576040517f08c379a00000000000000000000000000000000000000000000000000000000081526004016101de90610b2f565b60405180910390fd5b60019050919050565b6000809054906101000a900473ffffffffffffffffffffffffffffffffffffffff1681565b600080826000015190506000151560056000836000191660001916815260200190815260200160002060009054906101000a900460ff161515141515610290576040517f08c379a000000000000000000000000000000000000000000000000000000000815260040161028790610b0f565b60405180910390fd5b600160056000836000191660001916815260200190815260200160002060006101000a81548160ff02191690831515021790555060068190806001815401808255809150509060018203906000526020600020016000909192909190915090600019169055506001915050919050565b6000809054906101000a900473ffffffffffffffffffffffffffffffffffffffff1673ffffffffffffffffffffffffffffffffffffffff163373ffffffffffffffffffffffffffffffffffffffff1614151561035b57600080fd5b61036481610367565b50565b600073ffffffffffffffffffffffffffffffffffffffff168173ffffffffffffffffffffffffffffffffffffffff16141515156103a357600080fd5b8073ffffffffffffffffffffffffffffffffffffffff166000809054906101000a900473ffffffffffffffffffffffffffffffffffffffff1673ffffffffffffffffffffffffffffffffffffffff167f8be0079c531659141344cd1fd0a4f28419497f9722a3daafe3b4186f6b6457e060405160405180910390a3806000806101000a81548173ffffffffffffffffffffffffffffffffffffffff021916908373ffffffffffffffffffffffffffffffffffffffff16021790555050565b600061046d8235610c56565b905092915050565b600082601f830112151561048857600080fd5b813561049b61049682610b7c565b610b4f565b9150818183526020840193506020810190508360005b838110156104e157813586016104c78882610655565b8452602084019350602083019250506001810190506104b1565b5050505092915050565b600082601f83011215156104fe57600080fd5b813561051161050c82610ba4565b610b4f565b9150818183526020840193506020810190508360005b83811015610557578135860161053d8882610705565b845260208401935060208301925050600181019050610527565b5050505092915050565b600082601f830112151561057457600080fd5b813561058761058282610bcc565b610b4f565b9150818183526020840193506020810190508360005b838110156105cd57813586016105b38882610899565b84526020840193506020830192505060018101905061059d565b5050505092915050565b60006105e38235610c76565b905092915050565b60006105f78235610c82565b905092915050565b600082601f830112151561061257600080fd5b813561062561062082610bf4565b610b4f565b9150808252602083016020830185838301111561064157600080fd5b61064c838284610c96565b50505092915050565b60006040828403121561066757600080fd5b6106716040610b4f565b9050600082013567ffffffffffffffff81111561068d57600080fd5b610699848285016105ff565b60008301525060206106ad848285016105d7565b60208301525092915050565b6000606082840312156106cb57600080fd5b6106d56040610b4f565b905060006106e58482850161084d565b60008301525060406106f984828501610915565b60208301525092915050565b600060c0828403121561071757600080fd5b6107216080610b4f565b90506000610731848285016105eb565b6000830152506020610745848285016106b9565b602083015250608082013567ffffffffffffffff81111561076557600080fd5b61077184828501610561565b60408301525060a082013567ffffffffffffffff81111561079157600080fd5b61079d84828501610475565b60608301525092915050565b600060c082840312156107bb57600080fd5b6107c56080610b4f565b905060006107d5848285016105eb565b60008301525060206107e9848285016106b9565b602083015250608082013567ffffffffffffffff81111561080957600080fd5b61081584828501610561565b60408301525060a082013567ffffffffffffffff81111561083557600080fd5b61084184828501610475565b60608301525092915050565b60006040828403121561085f57600080fd5b6108696040610b4f565b90506000610879848285016105eb565b600083015250602061088d848285016105eb565b60208301525092915050565b6000604082840312156108ab57600080fd5b6108b56040610b4f565b9050600082013567ffffffffffffffff8111156108d157600080fd5b6108dd848285016105ff565b600083015250602082013567ffffffffffffffff8111156108fd57600080fd5b610909848285016105ff565b60208301525092915050565b60006109218235610c8c565b905092915050565b60006020828403121561093b57600080fd5b600061094984828501610461565b91505092915050565b60006020828403121561096457600080fd5b600082013567ffffffffffffffff81111561097e57600080fd5b61098a848285016104eb565b91505092915050565b6000602082840312156109a557600080fd5b600082013567ffffffffffffffff8111156109bf57600080fd5b6109cb848285016107a9565b91505092915050565b6000602082840312156109e657600080fd5b60006109f484828501610915565b91505092915050565b610a0681610c20565b82525050565b610a1581610c40565b82525050565b610a2481610c4c565b82525050565b6000601582527f436f6d70616e7920616c726561647920616464656400000000000000000000006020830152604082019050919050565b6000602582527f496e76616c6964206e756d626572206f6620636f6d70616e7920696e666f726d60208301527f6174696f6e0000000000000000000000000000000000000000000000000000006040830152606082019050919050565b6000602082019050610ad360008301846109fd565b92915050565b6000602082019050610aee6000830184610a0c565b92915050565b6000602082019050610b096000830184610a1b565b92915050565b60006020820190508181036000830152610b2881610a2a565b9050919050565b60006020820190508181036000830152610b4881610a61565b9050919050565b6000604051905081810181811067ffffffffffffffff82111715610b7257600080fd5b8060405250919050565b600067ffffffffffffffff821115610b9357600080fd5b602082029050602081019050919050565b600067ffffffffffffffff821115610bbb57600080fd5b602082029050602081019050919050565b600067ffffffffffffffff821115610be357600080fd5b602082029050602081019050919050565b600067ffffffffffffffff821115610c0b57600080fd5b601f19601f8301169050602081019050919050565b600073ffffffffffffffffffffffffffffffffffffffff82169050919050565b60008115159050919050565b6000819050919050565b600073ffffffffffffffffffffffffffffffffffffffff82169050919050565b60008115159050919050565b6000819050919050565b6000819050919050565b828183376000838301525050505600a265627a7a72305820cf212ed70951245a0a1898326b1b3b193067330050b9afe85e865eacda79c9b56c6578706572696d656e74616cf50037",
  "source": "pragma solidity >=0.4.24;\n\npragma experimental ABIEncoderV2;\n\nimport \"../lib/Ownable.sol\";\nimport \"../ens/ENS.sol\";\nimport \"../companyregistry/KomgoMetaResolver.sol\";\n\ncontract KomgoOnboarder is Ownable {\n    // namehash komgo meta resolver\n    // TODO, change this\n    bytes32 KOMGO_META_RESOLVER_NODE = 0x91d1777781884d03a6757a803996e38de2a42967fb37eeaca72729271025a9e2;\n\n    struct PublicKey {\n        bytes32 x;\n        bytes32 y;\n    }\n\n    struct EthPubKey {\n        PublicKey publicKey;\n        // uint effDate;\n        uint termDate;\n    }\n\n    struct BooleanEntry {\n        string key;\n        bool value;\n    }\n\n    struct TextEntry {\n        string key;\n        string value;\n    }\n\n    struct Record {\n        EthPubKey ethPubKeys;\n        // string jsonValues;\n        // Entry[] entries;\n    }\n\n    struct OnboardingInformation {\n        bytes32 node;\n        EthPubKey ethPubKeys;\n        TextEntry[] textEntries;\n        BooleanEntry[] booleanEntries;\n    }\n\n    ENS ens;\n\n    KomgoMetaResolver komgoMetaResolver;\n\n    mapping(bytes32 => Record) companiesInformation;\n\n    mapping(bytes32 => bool) companiesRegistered;\n\n    bytes32[] public companiesNodes;\n\n    constructor(address _ensAddress) public {\n        ens = ENS(_ensAddress);\n        // get meta resolver instance\n        address resolverAddress = ens.resolver(KOMGO_META_RESOLVER_NODE);\n        komgoMetaResolver = KomgoMetaResolver(resolverAddress);\n    }\n\n    function addCompanyOnboardingInformation(OnboardingInformation memory _onboardInformation) public returns(bool){\n        bytes32 companyNode = _onboardInformation.node;\n        require(companiesRegistered[companyNode] == false, \"Company already added\");\n        //companiesInformation[companyNode].reverseNode = _onboardInformation.metaRecord.reverseNode;\n        // companiesInformation[companyNode].jsonValues = _onboardInformation.record.jsonValues;\n        // uint256 numberOfKeys = _onboardInformation.record.ethPubKeys.length;\n        // for(uint256 i = 0; i < numberOfKeys; i++){\n        //     companiesInformation[companyNode].ethPubKeys.push(_onboardInformation.record.ethPubKeys[i]);\n        // }\n        companiesRegistered[companyNode] = true;\n        companiesNodes.push(companyNode);\n        return true;\n    }\n\n    function addCompaniesOnboardingInformation(OnboardingInformation[] memory _onboardInformation) public returns(bool){\n        require(_onboardInformation.length > 0, \"Invalid number of company information\");\n    //     uint256 arrayLength = _onboardInformation.length;\n    //     for (uint256 i = 0; i < arrayLength; i++) {\n    //         addCompanyOnboardingInformation(_onboardInformation[i]);\n    //     }\n        return true;\n    }\n\n    // function onboardAll() public view returns(bool){\n    //     for (uint256 i = 0; i < companiesNodes.length; i++) {\n    //         // Record storage record = companiesInformation[companiesNodes[i]];\n\n    //         // setText, then set pub key\n\n    //         // get KomgoMetaResolver Interface and use it to cast method calls, given the address\n    //         // that ens returns (call ENS)\n            \n    //         // but for that case, call meta resolver,\n    //         // call all methods..\n    //         // done\n    //     }\n    //     return true;\n    // }\n\n    // function onBoardCompany(bytes32 _companyNode) public view returns(bool){\n    //     // TODO\n    //     // get company information\n    //     // put into the KomgoMetaResolver\n    // }\n}",
  "sourcePath": "/Users/edsonalcala/Consensys/smart-contracts-last/smart-contracts/contracts/onboard/KomgoOnboarder.sol",
  "compiler": {
    "name": "solc",
    "version": "0.4.24+commit.e67f0147.Emscripten.clang"
  },
  "schemaVersion": "3.0.6",
  "updatedAt": "2019-05-08T08:38:06.620Z",
  "devdoc": {
    "methods": {
      "transferOwnership(address)": {
        "details": "Allows the current owner to transfer control of the contract to a newOwner.",
        "params": {
          "_newOwner": "The address to transfer ownership to."
        }
      }
    }
  },
  "userdoc": {
    "methods": {}
  }
}