{
  "contractName": "KomgoMetaResolver",
  "abi": [
    {
      "constant": false,
      "inputs": [
        {
          "name": "node",
          "type": "bytes32"
        },
        {
          "name": "key",
          "type": "string"
        },
        {
          "name": "value",
          "type": "string"
        }
      ],
      "name": "setText",
      "outputs": [],
      "payable": false,
      "stateMutability": "nonpayable",
      "type": "function"
    },
    {
      "constant": true,
      "inputs": [
        {
          "name": "node",
          "type": "bytes32"
        },
        {
          "name": "contentTypes",
          "type": "uint256"
        }
      ],
      "name": "ABI",
      "outputs": [
        {
          "name": "contentType",
          "type": "uint256"
        },
        {
          "name": "data",
          "type": "bytes"
        }
      ],
      "payable": false,
      "stateMutability": "view",
      "type": "function"
    },
    {
      "constant": false,
      "inputs": [
        {
          "name": "node",
          "type": "bytes32"
        },
        {
          "name": "x",
          "type": "bytes32"
        },
        {
          "name": "y",
          "type": "bytes32"
        }
      ],
      "name": "setPubkey",
      "outputs": [],
      "payable": false,
      "stateMutability": "nonpayable",
      "type": "function"
    },
    {
      "constant": true,
      "inputs": [
        {
          "name": "node",
          "type": "bytes32"
        }
      ],
      "name": "content",
      "outputs": [
        {
          "name": "",
          "type": "bytes32"
        }
      ],
      "payable": false,
      "stateMutability": "view",
      "type": "function"
    },
    {
      "constant": true,
      "inputs": [
        {
          "name": "node",
          "type": "bytes32"
        }
      ],
      "name": "addr",
      "outputs": [
        {
          "name": "",
          "type": "address"
        }
      ],
      "payable": false,
      "stateMutability": "view",
      "type": "function"
    },
    {
      "constant": true,
      "inputs": [
        {
          "name": "node",
          "type": "bytes32"
        },
        {
          "name": "key",
          "type": "string"
        }
      ],
      "name": "text",
      "outputs": [
        {
          "name": "",
          "type": "string"
        }
      ],
      "payable": false,
      "stateMutability": "view",
      "type": "function"
    },
    {
      "constant": false,
      "inputs": [
        {
          "name": "node",
          "type": "bytes32"
        },
        {
          "name": "contentType",
          "type": "uint256"
        },
        {
          "name": "data",
          "type": "bytes"
        }
      ],
      "name": "setABI",
      "outputs": [],
      "payable": false,
      "stateMutability": "nonpayable",
      "type": "function"
    },
    {
      "constant": true,
      "inputs": [
        {
          "name": "node",
          "type": "bytes32"
        }
      ],
      "name": "name",
      "outputs": [
        {
          "name": "",
          "type": "string"
        }
      ],
      "payable": false,
      "stateMutability": "view",
      "type": "function"
    },
    {
      "constant": false,
      "inputs": [
        {
          "name": "node",
          "type": "bytes32"
        },
        {
          "name": "name",
          "type": "string"
        }
      ],
      "name": "setName",
      "outputs": [],
      "payable": false,
      "stateMutability": "nonpayable",
      "type": "function"
    },
    {
      "constant": false,
      "inputs": [
        {
          "name": "node",
          "type": "bytes32"
        },
        {
          "name": "hash",
          "type": "bytes"
        }
      ],
      "name": "setMultihash",
      "outputs": [],
      "payable": false,
      "stateMutability": "nonpayable",
      "type": "function"
    },
    {
      "constant": false,
      "inputs": [
        {
          "name": "node",
          "type": "bytes32"
        },
        {
          "name": "hash",
          "type": "bytes32"
        }
      ],
      "name": "setContent",
      "outputs": [],
      "payable": false,
      "stateMutability": "nonpayable",
      "type": "function"
    },
    {
      "constant": true,
      "inputs": [
        {
          "name": "node",
          "type": "bytes32"
        }
      ],
      "name": "pubkey",
      "outputs": [
        {
          "name": "x",
          "type": "bytes32"
        },
        {
          "name": "y",
          "type": "bytes32"
        }
      ],
      "payable": false,
      "stateMutability": "view",
      "type": "function"
    },
    {
      "constant": false,
      "inputs": [
        {
          "name": "node",
          "type": "bytes32"
        },
        {
          "name": "addr",
          "type": "address"
        }
      ],
      "name": "setAddr",
      "outputs": [],
      "payable": false,
      "stateMutability": "nonpayable",
      "type": "function"
    },
    {
      "constant": true,
      "inputs": [
        {
          "name": "node",
          "type": "bytes32"
        }
      ],
      "name": "multihash",
      "outputs": [
        {
          "name": "",
          "type": "bytes"
        }
      ],
      "payable": false,
      "stateMutability": "view",
      "type": "function"
    },
    {
      "inputs": [
        {
          "name": "_ensAddr",
          "type": "address"
        }
      ],
      "payable": false,
      "stateMutability": "nonpayable",
      "type": "constructor"
    },
    {
      "anonymous": false,
      "inputs": [
        {
          "indexed": true,
          "name": "_node",
          "type": "bytes32"
        },
        {
          "indexed": false,
          "name": "_guid",
          "type": "string"
        }
      ],
      "name": "GuidChanged",
      "type": "event"
    },
    {
      "anonymous": false,
      "inputs": [
        {
          "indexed": true,
          "name": "_node",
          "type": "bytes32"
        },
        {
          "indexed": false,
          "name": "_legalEntityName",
          "type": "string"
        }
      ],
      "name": "LegalEntityNameChanged",
      "type": "event"
    },
    {
      "anonymous": false,
      "inputs": [
        {
          "indexed": true,
          "name": "_node",
          "type": "bytes32"
        },
        {
          "indexed": false,
          "name": "_amqpQueue",
          "type": "string"
        }
      ],
      "name": "AmqpQueueChanged",
      "type": "event"
    },
    {
      "anonymous": false,
      "inputs": [
        {
          "indexed": true,
          "name": "node",
          "type": "bytes32"
        },
        {
          "indexed": false,
          "name": "a",
          "type": "address"
        }
      ],
      "name": "AddrChanged",
      "type": "event"
    },
    {
      "anonymous": false,
      "inputs": [
        {
          "indexed": true,
          "name": "node",
          "type": "bytes32"
        },
        {
          "indexed": false,
          "name": "hash",
          "type": "bytes32"
        }
      ],
      "name": "ContentChanged",
      "type": "event"
    },
    {
      "anonymous": false,
      "inputs": [
        {
          "indexed": true,
          "name": "node",
          "type": "bytes32"
        },
        {
          "indexed": false,
          "name": "name",
          "type": "string"
        }
      ],
      "name": "NameChanged",
      "type": "event"
    },
    {
      "anonymous": false,
      "inputs": [
        {
          "indexed": true,
          "name": "node",
          "type": "bytes32"
        },
        {
          "indexed": true,
          "name": "contentType",
          "type": "uint256"
        }
      ],
      "name": "ABIChanged",
      "type": "event"
    },
    {
      "anonymous": false,
      "inputs": [
        {
          "indexed": true,
          "name": "node",
          "type": "bytes32"
        },
        {
          "indexed": false,
          "name": "x",
          "type": "bytes32"
        },
        {
          "indexed": false,
          "name": "y",
          "type": "bytes32"
        }
      ],
      "name": "PubkeyChanged",
      "type": "event"
    },
    {
      "anonymous": false,
      "inputs": [
        {
          "indexed": true,
          "name": "node",
          "type": "bytes32"
        },
        {
          "indexed": false,
          "name": "indexedKey",
          "type": "string"
        },
        {
          "indexed": false,
          "name": "key",
          "type": "string"
        }
      ],
      "name": "TextChanged",
      "type": "event"
    },
    {
      "anonymous": false,
      "inputs": [
        {
          "indexed": true,
          "name": "node",
          "type": "bytes32"
        },
        {
          "indexed": false,
          "name": "hash",
          "type": "bytes"
        }
      ],
      "name": "MultihashChanged",
      "type": "event"
    },
    {
      "constant": false,
      "inputs": [
        {
          "name": "_node",
          "type": "bytes32"
        },
        {
          "name": "_guid",
          "type": "string"
        }
      ],
      "name": "setGuid",
      "outputs": [],
      "payable": false,
      "stateMutability": "nonpayable",
      "type": "function"
    },
    {
      "constant": false,
      "inputs": [
        {
          "name": "_node",
          "type": "bytes32"
        },
        {
          "name": "_legalEntityName",
          "type": "string"
        }
      ],
      "name": "setLegalEntityName",
      "outputs": [],
      "payable": false,
      "stateMutability": "nonpayable",
      "type": "function"
    },
    {
      "constant": false,
      "inputs": [
        {
          "name": "_node",
          "type": "bytes32"
        },
        {
          "name": "_amqpQueue",
          "type": "string"
        }
      ],
      "name": "setAmqpQueue",
      "outputs": [],
      "payable": false,
      "stateMutability": "nonpayable",
      "type": "function"
    },
    {
      "constant": true,
      "inputs": [
        {
          "name": "_node",
          "type": "bytes32"
        }
      ],
      "name": "guid",
      "outputs": [
        {
          "name": "",
          "type": "string"
        }
      ],
      "payable": false,
      "stateMutability": "view",
      "type": "function"
    },
    {
      "constant": true,
      "inputs": [
        {
          "name": "_node",
          "type": "bytes32"
        }
      ],
      "name": "legalEntityName",
      "outputs": [
        {
          "name": "",
          "type": "string"
        }
      ],
      "payable": false,
      "stateMutability": "view",
      "type": "function"
    },
    {
      "constant": true,
      "inputs": [
        {
          "name": "_node",
          "type": "bytes32"
        }
      ],
      "name": "amqpQueue",
      "outputs": [
        {
          "name": "",
          "type": "string"
        }
      ],
      "payable": false,
      "stateMutability": "view",
      "type": "function"
    },
    {
      "constant": true,
      "inputs": [
        {
          "name": "_interfaceID",
          "type": "bytes4"
        }
      ],
      "name": "supportsInterface",
      "outputs": [
        {
          "name": "",
          "type": "bool"
        }
      ],
      "payable": false,
      "stateMutability": "pure",
      "type": "function"
    }
  ],
  "bytecode": "0x608060405234801561001057600080fd5b50604051602080612c6c8339810180604052810190808051906020019092919050505080806000806101000a81548173ffffffffffffffffffffffffffffffffffffffff021916908373ffffffffffffffffffffffffffffffffffffffff1602179055505050612be7806100856000396000f30060806040526004361061011d576000357c0100000000000000000000000000000000000000000000000000000000900463ffffffff16806301ffc9a7146101225780630b587e381461018657806310f13a8c146102305780632203ab56146102ed57806329cd62ea146103a85780632c799c07146103f55780632dff69411461046c5780633b3b57de146104b9578063569b09b41461052a57806359d1d43c146105d4578063623195b0146106c4578063691f3431146107455780636db30a93146107ef5780637737221314610866578063aa4cb547146108dd578063ae753d3214610954578063c3d014d6146109fe578063c869023314610a3d578063d5fa2b0014610a99578063e89401a114610aea578063fa2a2bda14610b94575b600080fd5b34801561012e57600080fd5b5061016c60048036038101908080357bffffffffffffffffffffffffffffffffffffffffffffffffffffffff19169060200190929190505050610c0b565b604051808215151515815260200191505060405180910390f35b34801561019257600080fd5b506101b56004803603810190808035600019169060200190929190505050610d5e565b6040518080602001828103825283818151815260200191508051906020019080838360005b838110156101f55780820151818401526020810190506101da565b50505050905090810190601f1680156102225780820380516001836020036101000a031916815260200191505b509250505060405180910390f35b34801561023c57600080fd5b506102eb6004803603810190808035600019169060200190929190803590602001908201803590602001908080601f0160208091040260200160405190810160405280939291908181526020018383808284378201915050505050509192919290803590602001908201803590602001908080601f0160208091040260200160405190810160405280939291908181526020018383808284378201915050505050509192919290505050610e1e565b005b3480156102f957600080fd5b506103266004803603810190808035600019169060200190929190803590602001909291905050506110db565b6040518083815260200180602001828103825283818151815260200191508051906020019080838360005b8381101561036c578082015181840152602081019050610351565b50505050905090810190601f1680156103995780820380516001836020036101000a031916815260200191505b50935050505060405180910390f35b3480156103b457600080fd5b506103f360048036038101908080356000191690602001909291908035600019169060200190929190803560001916906020019092919050505061121e565b005b34801561040157600080fd5b5061046a6004803603810190808035600019169060200190929190803590602001908201803590602001908080601f01602080910402602001604051908101604052809392919081815260200183838082843782019150505050505091929192905050506113e3565b005b34801561047857600080fd5b5061049b60048036038101908080356000191690602001909291905050506115c9565b60405180826000191660001916815260200191505060405180910390f35b3480156104c557600080fd5b506104e860048036038101908080356000191690602001909291905050506115f1565b604051808273ffffffffffffffffffffffffffffffffffffffff1673ffffffffffffffffffffffffffffffffffffffff16815260200191505060405180910390f35b34801561053657600080fd5b506105596004803603810190808035600019169060200190929190505050611639565b6040518080602001828103825283818151815260200191508051906020019080838360005b8381101561059957808201518184015260208101905061057e565b50505050905090810190601f1680156105c65780820380516001836020036101000a031916815260200191505b509250505060405180910390f35b3480156105e057600080fd5b506106496004803603810190808035600019169060200190929190803590602001908201803590602001908080601f01602080910402602001604051908101604052809392919081815260200183838082843782019150505050505091929192905050506116f9565b6040518080602001828103825283818151815260200191508051906020019080838360005b8381101561068957808201518184015260208101905061066e565b50505050905090810190601f1680156106b65780820380516001836020036101000a031916815260200191505b509250505060405180910390f35b3480156106d057600080fd5b50610743600480360381019080803560001916906020019092919080359060200190929190803590602001908201803590602001908080601f0160208091040260200160405190810160405280939291908181526020018383808284378201915050505050509192919290505050611823565b005b34801561075157600080fd5b5061077460048036038101908080356000191690602001909291905050506119c0565b6040518080602001828103825283818151815260200191508051906020019080838360005b838110156107b4578082015181840152602081019050610799565b50505050905090810190601f1680156107e15780820380516001836020036101000a031916815260200191505b509250505060405180910390f35b3480156107fb57600080fd5b506108646004803603810190808035600019169060200190929190803590602001908201803590602001908080601f0160208091040260200160405190810160405280939291908181526020018383808284378201915050505050509192919290505050611a80565b005b34801561087257600080fd5b506108db6004803603810190808035600019169060200190929190803590602001908201803590602001908080601f0160208091040260200160405190810160405280939291908181526020018383808284378201915050505050509192919290505050611c66565b005b3480156108e957600080fd5b506109526004803603810190808035600019169060200190929190803590602001908201803590602001908080601f0160208091040260200160405190810160405280939291908181526020018383808284378201915050505050509192919290505050611e4c565b005b34801561096057600080fd5b506109836004803603810190808035600019169060200190929190505050612032565b6040518080602001828103825283818151815260200191508051906020019080838360005b838110156109c35780820151818401526020810190506109a8565b50505050905090810190601f1680156109f05780820380516001836020036101000a031916815260200191505b509250505060405180910390f35b348015610a0a57600080fd5b50610a3b600480360381019080803560001916906020019092919080356000191690602001909291905050506120f2565b005b348015610a4957600080fd5b50610a6c600480360381019080803560001916906020019092919050505061226f565b60405180836000191660001916815260200182600019166000191681526020019250505060405180910390f35b348015610aa557600080fd5b50610ae86004803603810190808035600019169060200190929190803573ffffffffffffffffffffffffffffffffffffffff1690602001909291905050506122bf565b005b348015610af657600080fd5b50610b196004803603810190808035600019169060200190929190505050612496565b6040518080602001828103825283818151815260200191508051906020019080838360005b83811015610b59578082015181840152602081019050610b3e565b50505050905090810190601f168015610b865780820380516001836020036101000a031916815260200191505b509250505060405180910390f35b348015610ba057600080fd5b50610c096004803603810190808035600019169060200190929190803590602001908201803590602001908080601f0160208091040260200160405190810160405280939291908181526020018383808284378201915050505050509192919290505050612556565b005b6000610c168261273c565b80610c81575063ae753d327c0100000000000000000000000000000000000000000000000000000000027bffffffffffffffffffffffffffffffffffffffffffffffffffffffff1916827bffffffffffffffffffffffffffffffffffffffffffffffffffffffff1916145b80610cec5750630b587e387c0100000000000000000000000000000000000000000000000000000000027bffffffffffffffffffffffffffffffffffffffffffffffffffffffff1916827bffffffffffffffffffffffffffffffffffffffffffffffffffffffff1916145b80610d57575063569b09b47c0100000000000000000000000000000000000000000000000000000000027bffffffffffffffffffffffffffffffffffffffffffffffffffffffff1916827bffffffffffffffffffffffffffffffffffffffffffffffffffffffff1916145b9050919050565b60606002600083600019166000191681526020019081526020016000206001018054600181600116156101000203166002900480601f016020809104026020016040519081016040528092919081815260200182805460018160011615610100020316600290048015610e125780601f10610de757610100808354040283529160200191610e12565b820191906000526020600020905b815481529060010190602001808311610df557829003601f168201915b50505050509050919050565b823373ffffffffffffffffffffffffffffffffffffffff166000809054906101000a900473ffffffffffffffffffffffffffffffffffffffff1673ffffffffffffffffffffffffffffffffffffffff166302571be3836040518263ffffffff167c0100000000000000000000000000000000000000000000000000000000028152600401808260001916600019168152602001915050602060405180830381600087803b158015610ece57600080fd5b505af1158015610ee2573d6000803e3d6000fd5b505050506040513d6020811015610ef857600080fd5b810190808051906020019092919050505073ffffffffffffffffffffffffffffffffffffffff16141515610f2b57600080fd5b81600160008660001916600019168152602001908152602001600020600501846040518082805190602001908083835b602083101515610f805780518252602082019150602081019050602083039250610f5b565b6001836020036101000a03801982511681845116808217855250505050505090500191505090815260200160405180910390209080519060200190610fc6929190612a96565b5083600019167fd8c9334b1a9c2f9da342a0a2b32629c1a229b6445dad78947f674b44444a75508485604051808060200180602001838103835285818151815260200191508051906020019080838360005b83811015611033578082015181840152602081019050611018565b50505050905090810190601f1680156110605780820380516001836020036101000a031916815260200191505b50838103825284818151815260200191508051906020019080838360005b8381101561109957808201518184015260208101905061107e565b50505050905090810190601f1680156110c65780820380516001836020036101000a031916815260200191505b5094505050505060405180910390a250505050565b6000606060006001600086600019166000191681526020019081526020016000209050600192505b83831115156112115760008484161415801561114857506000816006016000858152602001908152602001600020805460018160011615610100020316600290049050115b15611202578060060160008481526020019081526020016000208054600181600116156101000203166002900480601f0160208091040260200160405190810160405280929190818152602001828054600181600116156101000203166002900480156111f65780601f106111cb576101008083540402835291602001916111f6565b820191906000526020600020905b8154815290600101906020018083116111d957829003601f168201915b50505050509150611216565b6001839060020a029250611103565b600092505b509250929050565b823373ffffffffffffffffffffffffffffffffffffffff166000809054906101000a900473ffffffffffffffffffffffffffffffffffffffff1673ffffffffffffffffffffffffffffffffffffffff166302571be3836040518263ffffffff167c0100000000000000000000000000000000000000000000000000000000028152600401808260001916600019168152602001915050602060405180830381600087803b1580156112ce57600080fd5b505af11580156112e2573d6000803e3d6000fd5b505050506040513d60208110156112f857600080fd5b810190808051906020019092919050505073ffffffffffffffffffffffffffffffffffffffff1614151561132b57600080fd5b6040805190810160405280846000191681526020018360001916815250600160008660001916600019168152602001908152602001600020600301600082015181600001906000191690556020820151816001019060001916905590505083600019167f1d6f5e03d3f63eb58751986629a5439baee5079ff04f345becb66e23eb154e46848460405180836000191660001916815260200182600019166000191681526020019250505060405180910390a250505050565b813373ffffffffffffffffffffffffffffffffffffffff166000809054906101000a900473ffffffffffffffffffffffffffffffffffffffff1673ffffffffffffffffffffffffffffffffffffffff166302571be3836040518263ffffffff167c0100000000000000000000000000000000000000000000000000000000028152600401808260001916600019168152602001915050602060405180830381600087803b15801561149357600080fd5b505af11580156114a7573d6000803e3d6000fd5b505050506040513d60208110156114bd57600080fd5b810190808051906020019092919050505073ffffffffffffffffffffffffffffffffffffffff161415156114f057600080fd5b816002600085600019166000191681526020019081526020016000206001019080519060200190611522929190612a96565b5082600019167fe375748d09e676b4c02e85b87e6ec290feaafb73da75942795555f0284993e3b836040518080602001828103825283818151815260200191508051906020019080838360005b8381101561158a57808201518184015260208101905061156f565b50505050905090810190601f1680156115b75780820380516001836020036101000a031916815260200191505b509250505060405180910390a2505050565b6000600160008360001916600019168152602001908152602001600020600101549050919050565b600060016000836000191660001916815260200190815260200160002060000160009054906101000a900473ffffffffffffffffffffffffffffffffffffffff169050919050565b60606002600083600019166000191681526020019081526020016000206002018054600181600116156101000203166002900480601f0160208091040260200160405190810160405280929190818152602001828054600181600116156101000203166002900480156116ed5780601f106116c2576101008083540402835291602001916116ed565b820191906000526020600020905b8154815290600101906020018083116116d057829003601f168201915b50505050509050919050565b6060600160008460001916600019168152602001908152602001600020600501826040518082805190602001908083835b60208310151561174f578051825260208201915060208101905060208303925061172a565b6001836020036101000a03801982511681845116808217855250505050505090500191505090815260200160405180910390208054600181600116156101000203166002900480601f0160208091040260200160405190810160405280929190818152602001828054600181600116156101000203166002900480156118165780601f106117eb57610100808354040283529160200191611816565b820191906000526020600020905b8154815290600101906020018083116117f957829003601f168201915b5050505050905092915050565b823373ffffffffffffffffffffffffffffffffffffffff166000809054906101000a900473ffffffffffffffffffffffffffffffffffffffff1673ffffffffffffffffffffffffffffffffffffffff166302571be3836040518263ffffffff167c0100000000000000000000000000000000000000000000000000000000028152600401808260001916600019168152602001915050602060405180830381600087803b1580156118d357600080fd5b505af11580156118e7573d6000803e3d6000fd5b505050506040513d60208110156118fd57600080fd5b810190808051906020019092919050505073ffffffffffffffffffffffffffffffffffffffff1614151561193057600080fd5b600083600185031614151561194457600080fd5b8160016000866000191660001916815260200190815260200160002060060160008581526020019081526020016000209080519060200190611987929190612b16565b508284600019167faa121bbeef5f32f5961a2a28966e769023910fc9479059ee3495d4c1a696efe360405160405180910390a350505050565b60606001600083600019166000191681526020019081526020016000206002018054600181600116156101000203166002900480601f016020809104026020016040519081016040528092919081815260200182805460018160011615610100020316600290048015611a745780601f10611a4957610100808354040283529160200191611a74565b820191906000526020600020905b815481529060010190602001808311611a5757829003601f168201915b50505050509050919050565b813373ffffffffffffffffffffffffffffffffffffffff166000809054906101000a900473ffffffffffffffffffffffffffffffffffffffff1673ffffffffffffffffffffffffffffffffffffffff166302571be3836040518263ffffffff167c0100000000000000000000000000000000000000000000000000000000028152600401808260001916600019168152602001915050602060405180830381600087803b158015611b3057600080fd5b505af1158015611b44573d6000803e3d6000fd5b505050506040513d6020811015611b5a57600080fd5b810190808051906020019092919050505073ffffffffffffffffffffffffffffffffffffffff16141515611b8d57600080fd5b816002600085600019166000191681526020019081526020016000206000019080519060200190611bbf929190612a96565b5082600019167f392e5b011bbb2b74429a6ccf53b07d49b5693e7eb6b7f6723bff607cd645cd99836040518080602001828103825283818151815260200191508051906020019080838360005b83811015611c27578082015181840152602081019050611c0c565b50505050905090810190601f168015611c545780820380516001836020036101000a031916815260200191505b509250505060405180910390a2505050565b813373ffffffffffffffffffffffffffffffffffffffff166000809054906101000a900473ffffffffffffffffffffffffffffffffffffffff1673ffffffffffffffffffffffffffffffffffffffff166302571be3836040518263ffffffff167c0100000000000000000000000000000000000000000000000000000000028152600401808260001916600019168152602001915050602060405180830381600087803b158015611d1657600080fd5b505af1158015611d2a573d6000803e3d6000fd5b505050506040513d6020811015611d4057600080fd5b810190808051906020019092919050505073ffffffffffffffffffffffffffffffffffffffff16141515611d7357600080fd5b816001600085600019166000191681526020019081526020016000206002019080519060200190611da5929190612a96565b5082600019167fb7d29e911041e8d9b843369e890bcb72c9388692ba48b65ac54e7214c4c348f7836040518080602001828103825283818151815260200191508051906020019080838360005b83811015611e0d578082015181840152602081019050611df2565b50505050905090810190601f168015611e3a5780820380516001836020036101000a031916815260200191505b509250505060405180910390a2505050565b813373ffffffffffffffffffffffffffffffffffffffff166000809054906101000a900473ffffffffffffffffffffffffffffffffffffffff1673ffffffffffffffffffffffffffffffffffffffff166302571be3836040518263ffffffff167c0100000000000000000000000000000000000000000000000000000000028152600401808260001916600019168152602001915050602060405180830381600087803b158015611efc57600080fd5b505af1158015611f10573d6000803e3d6000fd5b505050506040513d6020811015611f2657600080fd5b810190808051906020019092919050505073ffffffffffffffffffffffffffffffffffffffff16141515611f5957600080fd5b816001600085600019166000191681526020019081526020016000206007019080519060200190611f8b929190612b16565b5082600019167fc0b0fc07269fc2749adada3221c095a1d2187b2d075b51c915857b520f3a5021836040518080602001828103825283818151815260200191508051906020019080838360005b83811015611ff3578082015181840152602081019050611fd8565b50505050905090810190601f1680156120205780820380516001836020036101000a031916815260200191505b509250505060405180910390a2505050565b60606002600083600019166000191681526020019081526020016000206000018054600181600116156101000203166002900480601f0160208091040260200160405190810160405280929190818152602001828054600181600116156101000203166002900480156120e65780601f106120bb576101008083540402835291602001916120e6565b820191906000526020600020905b8154815290600101906020018083116120c957829003601f168201915b50505050509050919050565b813373ffffffffffffffffffffffffffffffffffffffff166000809054906101000a900473ffffffffffffffffffffffffffffffffffffffff1673ffffffffffffffffffffffffffffffffffffffff166302571be3836040518263ffffffff167c0100000000000000000000000000000000000000000000000000000000028152600401808260001916600019168152602001915050602060405180830381600087803b1580156121a257600080fd5b505af11580156121b6573d6000803e3d6000fd5b505050506040513d60208110156121cc57600080fd5b810190808051906020019092919050505073ffffffffffffffffffffffffffffffffffffffff161415156121ff57600080fd5b81600160008560001916600019168152602001908152602001600020600101816000191690555082600019167f0424b6fe0d9c3bdbece0e7879dc241bb0c22e900be8b6c168b4ee08bd9bf83bc8360405180826000191660001916815260200191505060405180910390a2505050565b600080600160008460001916600019168152602001908152602001600020600301600001546001600085600019166000191681526020019081526020016000206003016001015491509150915091565b813373ffffffffffffffffffffffffffffffffffffffff166000809054906101000a900473ffffffffffffffffffffffffffffffffffffffff1673ffffffffffffffffffffffffffffffffffffffff166302571be3836040518263ffffffff167c0100000000000000000000000000000000000000000000000000000000028152600401808260001916600019168152602001915050602060405180830381600087803b15801561236f57600080fd5b505af1158015612383573d6000803e3d6000fd5b505050506040513d602081101561239957600080fd5b810190808051906020019092919050505073ffffffffffffffffffffffffffffffffffffffff161415156123cc57600080fd5b8160016000856000191660001916815260200190815260200160002060000160006101000a81548173ffffffffffffffffffffffffffffffffffffffff021916908373ffffffffffffffffffffffffffffffffffffffff16021790555082600019167f52d7d861f09ab3d26239d492e8968629f95e9e318cf0b73bfddc441522a15fd283604051808273ffffffffffffffffffffffffffffffffffffffff1673ffffffffffffffffffffffffffffffffffffffff16815260200191505060405180910390a2505050565b60606001600083600019166000191681526020019081526020016000206007018054600181600116156101000203166002900480601f01602080910402602001604051908101604052809291908181526020018280546001816001161561010002031660029004801561254a5780601f1061251f5761010080835404028352916020019161254a565b820191906000526020600020905b81548152906001019060200180831161252d57829003601f168201915b50505050509050919050565b813373ffffffffffffffffffffffffffffffffffffffff166000809054906101000a900473ffffffffffffffffffffffffffffffffffffffff1673ffffffffffffffffffffffffffffffffffffffff166302571be3836040518263ffffffff167c0100000000000000000000000000000000000000000000000000000000028152600401808260001916600019168152602001915050602060405180830381600087803b15801561260657600080fd5b505af115801561261a573d6000803e3d6000fd5b505050506040513d602081101561263057600080fd5b810190808051906020019092919050505073ffffffffffffffffffffffffffffffffffffffff1614151561266357600080fd5b816002600085600019166000191681526020019081526020016000206002019080519060200190612695929190612a96565b5082600019167f7c78c899dbe31827334bcfd19588bb1b1f811e644d24994bed1cf0afe28adf49836040518080602001828103825283818151815260200191508051906020019080838360005b838110156126fd5780820151818401526020810190506126e2565b50505050905090810190601f16801561272a5780820380516001836020036101000a031916815260200191505b509250505060405180910390a2505050565b6000633b3b57de7c0100000000000000000000000000000000000000000000000000000000027bffffffffffffffffffffffffffffffffffffffffffffffffffffffff1916827bffffffffffffffffffffffffffffffffffffffffffffffffffffffff1916148061280d575063d8389dc57c0100000000000000000000000000000000000000000000000000000000027bffffffffffffffffffffffffffffffffffffffffffffffffffffffff1916827bffffffffffffffffffffffffffffffffffffffffffffffffffffffff1916145b80612878575063691f34317c0100000000000000000000000000000000000000000000000000000000027bffffffffffffffffffffffffffffffffffffffffffffffffffffffff1916827bffffffffffffffffffffffffffffffffffffffffffffffffffffffff1916145b806128e35750632203ab567c0100000000000000000000000000000000000000000000000000000000027bffffffffffffffffffffffffffffffffffffffffffffffffffffffff1916827bffffffffffffffffffffffffffffffffffffffffffffffffffffffff1916145b8061294e575063c86902337c0100000000000000000000000000000000000000000000000000000000027bffffffffffffffffffffffffffffffffffffffffffffffffffffffff1916827bffffffffffffffffffffffffffffffffffffffffffffffffffffffff1916145b806129b957506359d1d43c7c0100000000000000000000000000000000000000000000000000000000027bffffffffffffffffffffffffffffffffffffffffffffffffffffffff1916827bffffffffffffffffffffffffffffffffffffffffffffffffffffffff1916145b80612a24575063e89401a17c0100000000000000000000000000000000000000000000000000000000027bffffffffffffffffffffffffffffffffffffffffffffffffffffffff1916827bffffffffffffffffffffffffffffffffffffffffffffffffffffffff1916145b80612a8f57506301ffc9a77c0100000000000000000000000000000000000000000000000000000000027bffffffffffffffffffffffffffffffffffffffffffffffffffffffff1916827bffffffffffffffffffffffffffffffffffffffffffffffffffffffff1916145b9050919050565b828054600181600116156101000203166002900490600052602060002090601f016020900481019282601f10612ad757805160ff1916838001178555612b05565b82800160010185558215612b05579182015b82811115612b04578251825591602001919060010190612ae9565b5b509050612b129190612b96565b5090565b828054600181600116156101000203166002900490600052602060002090601f016020900481019282601f10612b5757805160ff1916838001178555612b85565b82800160010185558215612b85579182015b82811115612b84578251825591602001919060010190612b69565b5b509050612b929190612b96565b5090565b612bb891905b80821115612bb4576000816000905550600101612b9c565b5090565b905600a165627a7a72305820368fb9b30597276ec99beb356791f750fe929fe172fa4caef47991bd549823580029",
  "source": "pragma solidity ^0.4.24;\n\nimport \"../lib/PublicResolver.sol\";\n\n/**\n * A resolver managed by Komgo with technical meta-data of a company.\n */\ncontract KomgoMetaResolver is PublicResolver {\n\n    bytes4 constant GUID_INTERFACE_ID = 0xae753d32;\n    bytes4 constant LEGAL_ENTITY_NAME_INTERFACE_ID = 0x0b587e38;\n    bytes4 constant AMQP_QUEUE_INTERFACE_ID = 0x569b09b4;\n\n    event GuidChanged(bytes32 indexed _node, string _guid);\n    event LegalEntityNameChanged(bytes32 indexed _node, string _legalEntityName);\n    event AmqpQueueChanged(bytes32 indexed _node, string _amqpQueue);\n\n    struct MetaRecord {\n        string guid;\n        string legalEntityName;\n        string amqpQueue;\n    }\n\n    mapping (bytes32 => MetaRecord) metaRecords;\n\n    constructor(ENS _ensAddr) PublicResolver(_ensAddr) public {}\n\n    /**\n     * Sets the GUID issued by Komgo.\n     * May only be called by the owner of that node in the ENS registry (which is going to be Komgo).\n     * @param _node The node to update.\n     * @param _guid The GUID to set.\n     */\n    function setGuid(bytes32 _node, string _guid) public only_owner(_node) {\n        metaRecords[_node].guid = _guid;\n        emit GuidChanged(_node, _guid);\n    }\n\n    /**\n     * Sets the legal entity name of a company.\n     * May only be called by the owner of that node in the ENS registry (which is going to be Komgo).\n     * @param _node The node to update.\n     * @param _legalEntityName The legal entity name to set.\n     */\n    function setLegalEntityName(bytes32 _node, string _legalEntityName) public only_owner(_node) {\n        metaRecords[_node].legalEntityName = _legalEntityName;\n        emit LegalEntityNameChanged(_node, _legalEntityName);\n    }\n\n    /**\n     * Sets the AMQP queue of a company.\n     * May only be called by the owner of that node in the ENS registry (which is going to be Komgo).\n     * @param _node The node to update.\n     * @param _amqpQueue The AMQP queue to set.\n     */\n    function setAmqpQueue(bytes32 _node, string _amqpQueue) public only_owner(_node) {\n        metaRecords[_node].amqpQueue = _amqpQueue;\n        emit AmqpQueueChanged(_node, _amqpQueue);\n    }\n\n    /**\n     * Returns the GUID associated with an ENS node.\n     * @param _node The ENS node to query.\n     * @return The associated GUID\n     */\n    function guid(bytes32 _node) public view returns (string) {\n        return metaRecords[_node].guid;\n    }\n\n    /**\n     * Returns the legal entity name associated with an ENS node.\n     * @param _node The ENS node to query.\n     * @return The associated legal entity name.\n     */\n    function legalEntityName(bytes32 _node) public view returns (string) {\n        return metaRecords[_node].legalEntityName;\n    }\n\n    /**\n     * Returns the AMQP queue associated with an ENS node.\n     * @param _node The ENS node to query.\n     * @return The associated AMQP queue.\n     */\n    function amqpQueue(bytes32 _node) public view returns (string) {\n        return metaRecords[_node].amqpQueue;\n    }\n\n    /**\n     * Returns true if the resolver implements the interface specified by the provided hash.\n     * @param _interfaceID The ID of the interface to check for.\n     * @return True if the contract implements the requested interface.\n     */\n    function supportsInterface(bytes4 _interfaceID) public pure returns (bool) {\n        return super.supportsInterface(_interfaceID)\n        || _interfaceID == GUID_INTERFACE_ID\n        || _interfaceID == LEGAL_ENTITY_NAME_INTERFACE_ID\n        || _interfaceID == AMQP_QUEUE_INTERFACE_ID;\n    }\n}\n",
  "sourcePath": "/Users/edsonalcala/Consensys/komgo-member/komgo-member-blockchain/contracts/companyregistry/KomgoMetaResolver.sol",
  "compiler": {
    "name": "solc",
    "version": "0.4.24+commit.e67f0147.Emscripten.clang"
  },
  "schemaVersion": "2.0.1",
  "updatedAt": "2018-07-27T12:20:33.316Z"
}