{
  "contractName": "KomgoResolver",
  "abi": [
    {
      "constant": false,
      "inputs": [
        {
          "name": "node",
          "type": "bytes32"
        },
        {
          "name": "key",
          "type": "string"
        },
        {
          "name": "value",
          "type": "string"
        }
      ],
      "name": "setText",
      "outputs": [],
      "payable": false,
      "stateMutability": "nonpayable",
      "type": "function"
    },
    {
      "constant": true,
      "inputs": [
        {
          "name": "node",
          "type": "bytes32"
        },
        {
          "name": "contentTypes",
          "type": "uint256"
        }
      ],
      "name": "ABI",
      "outputs": [
        {
          "name": "contentType",
          "type": "uint256"
        },
        {
          "name": "data",
          "type": "bytes"
        }
      ],
      "payable": false,
      "stateMutability": "view",
      "type": "function"
    },
    {
      "constant": false,
      "inputs": [
        {
          "name": "node",
          "type": "bytes32"
        },
        {
          "name": "x",
          "type": "bytes32"
        },
        {
          "name": "y",
          "type": "bytes32"
        }
      ],
      "name": "setPubkey",
      "outputs": [],
      "payable": false,
      "stateMutability": "nonpayable",
      "type": "function"
    },
    {
      "constant": true,
      "inputs": [
        {
          "name": "node",
          "type": "bytes32"
        }
      ],
      "name": "content",
      "outputs": [
        {
          "name": "",
          "type": "bytes32"
        }
      ],
      "payable": false,
      "stateMutability": "view",
      "type": "function"
    },
    {
      "constant": true,
      "inputs": [
        {
          "name": "node",
          "type": "bytes32"
        }
      ],
      "name": "addr",
      "outputs": [
        {
          "name": "",
          "type": "address"
        }
      ],
      "payable": false,
      "stateMutability": "view",
      "type": "function"
    },
    {
      "constant": true,
      "inputs": [
        {
          "name": "node",
          "type": "bytes32"
        },
        {
          "name": "key",
          "type": "string"
        }
      ],
      "name": "text",
      "outputs": [
        {
          "name": "",
          "type": "string"
        }
      ],
      "payable": false,
      "stateMutability": "view",
      "type": "function"
    },
    {
      "constant": false,
      "inputs": [
        {
          "name": "node",
          "type": "bytes32"
        },
        {
          "name": "contentType",
          "type": "uint256"
        },
        {
          "name": "data",
          "type": "bytes"
        }
      ],
      "name": "setABI",
      "outputs": [],
      "payable": false,
      "stateMutability": "nonpayable",
      "type": "function"
    },
    {
      "constant": true,
      "inputs": [
        {
          "name": "node",
          "type": "bytes32"
        }
      ],
      "name": "name",
      "outputs": [
        {
          "name": "",
          "type": "string"
        }
      ],
      "payable": false,
      "stateMutability": "view",
      "type": "function"
    },
    {
      "constant": false,
      "inputs": [
        {
          "name": "node",
          "type": "bytes32"
        },
        {
          "name": "name",
          "type": "string"
        }
      ],
      "name": "setName",
      "outputs": [],
      "payable": false,
      "stateMutability": "nonpayable",
      "type": "function"
    },
    {
      "constant": true,
      "inputs": [],
      "name": "owner",
      "outputs": [
        {
          "name": "",
          "type": "address"
        }
      ],
      "payable": false,
      "stateMutability": "view",
      "type": "function"
    },
    {
      "constant": false,
      "inputs": [
        {
          "name": "node",
          "type": "bytes32"
        },
        {
          "name": "hash",
          "type": "bytes"
        }
      ],
      "name": "setMultihash",
      "outputs": [],
      "payable": false,
      "stateMutability": "nonpayable",
      "type": "function"
    },
    {
      "constant": false,
      "inputs": [
        {
          "name": "node",
          "type": "bytes32"
        },
        {
          "name": "hash",
          "type": "bytes32"
        }
      ],
      "name": "setContent",
      "outputs": [],
      "payable": false,
      "stateMutability": "nonpayable",
      "type": "function"
    },
    {
      "constant": true,
      "inputs": [
        {
          "name": "node",
          "type": "bytes32"
        }
      ],
      "name": "pubkey",
      "outputs": [
        {
          "name": "x",
          "type": "bytes32"
        },
        {
          "name": "y",
          "type": "bytes32"
        }
      ],
      "payable": false,
      "stateMutability": "view",
      "type": "function"
    },
    {
      "constant": false,
      "inputs": [
        {
          "name": "node",
          "type": "bytes32"
        },
        {
          "name": "addr",
          "type": "address"
        }
      ],
      "name": "setAddr",
      "outputs": [],
      "payable": false,
      "stateMutability": "nonpayable",
      "type": "function"
    },
    {
      "constant": true,
      "inputs": [
        {
          "name": "node",
          "type": "bytes32"
        }
      ],
      "name": "multihash",
      "outputs": [
        {
          "name": "",
          "type": "bytes"
        }
      ],
      "payable": false,
      "stateMutability": "view",
      "type": "function"
    },
    {
      "constant": false,
      "inputs": [
        {
          "name": "_newOwner",
          "type": "address"
        }
      ],
      "name": "transferOwnership",
      "outputs": [],
      "payable": false,
      "stateMutability": "nonpayable",
      "type": "function"
    },
    {
      "inputs": [
        {
          "name": "_ensAddr",
          "type": "address"
        }
      ],
      "payable": false,
      "stateMutability": "nonpayable",
      "type": "constructor"
    },
    {
      "anonymous": false,
      "inputs": [
        {
          "indexed": true,
          "name": "_node",
          "type": "bytes32"
        },
        {
          "indexed": false,
          "name": "_nodeKeys",
          "type": "string"
        }
      ],
      "name": "NodeKeysChanged",
      "type": "event"
    },
    {
      "anonymous": false,
      "inputs": [
        {
          "indexed": true,
          "name": "_node",
          "type": "bytes32"
        },
        {
          "indexed": false,
          "name": "_xPublicKey",
          "type": "bytes32"
        },
        {
          "indexed": false,
          "name": "_yPublicKey",
          "type": "bytes32"
        },
        {
          "indexed": false,
          "name": "_termDate",
          "type": "uint256"
        }
      ],
      "name": "SigningKeyAdded",
      "type": "event"
    },
    {
      "anonymous": false,
      "inputs": [
        {
          "indexed": true,
          "name": "_node",
          "type": "bytes32"
        },
        {
          "indexed": false,
          "name": "_index",
          "type": "uint256"
        }
      ],
      "name": "SigningKeyRevoked",
      "type": "event"
    },
    {
      "anonymous": false,
      "inputs": [
        {
          "indexed": true,
          "name": "previousOwner",
          "type": "address"
        },
        {
          "indexed": true,
          "name": "newOwner",
          "type": "address"
        }
      ],
      "name": "OwnershipTransferred",
      "type": "event"
    },
    {
      "anonymous": false,
      "inputs": [
        {
          "indexed": true,
          "name": "node",
          "type": "bytes32"
        },
        {
          "indexed": false,
          "name": "a",
          "type": "address"
        }
      ],
      "name": "AddrChanged",
      "type": "event"
    },
    {
      "anonymous": false,
      "inputs": [
        {
          "indexed": true,
          "name": "node",
          "type": "bytes32"
        },
        {
          "indexed": false,
          "name": "hash",
          "type": "bytes32"
        }
      ],
      "name": "ContentChanged",
      "type": "event"
    },
    {
      "anonymous": false,
      "inputs": [
        {
          "indexed": true,
          "name": "node",
          "type": "bytes32"
        },
        {
          "indexed": false,
          "name": "name",
          "type": "string"
        }
      ],
      "name": "NameChanged",
      "type": "event"
    },
    {
      "anonymous": false,
      "inputs": [
        {
          "indexed": true,
          "name": "node",
          "type": "bytes32"
        },
        {
          "indexed": true,
          "name": "contentType",
          "type": "uint256"
        }
      ],
      "name": "ABIChanged",
      "type": "event"
    },
    {
      "anonymous": false,
      "inputs": [
        {
          "indexed": true,
          "name": "node",
          "type": "bytes32"
        },
        {
          "indexed": false,
          "name": "x",
          "type": "bytes32"
        },
        {
          "indexed": false,
          "name": "y",
          "type": "bytes32"
        }
      ],
      "name": "PubkeyChanged",
      "type": "event"
    },
    {
      "anonymous": false,
      "inputs": [
        {
          "indexed": true,
          "name": "node",
          "type": "bytes32"
        },
        {
          "indexed": false,
          "name": "indexedKey",
          "type": "string"
        },
        {
          "indexed": false,
          "name": "key",
          "type": "string"
        }
      ],
      "name": "TextChanged",
      "type": "event"
    },
    {
      "anonymous": false,
      "inputs": [
        {
          "indexed": true,
          "name": "node",
          "type": "bytes32"
        },
        {
          "indexed": false,
          "name": "hash",
          "type": "bytes"
        }
      ],
      "name": "MultihashChanged",
      "type": "event"
    },
    {
      "constant": false,
      "inputs": [
        {
          "name": "_node",
          "type": "bytes32"
        },
        {
          "name": "_nodeKeys",
          "type": "string"
        }
      ],
      "name": "setNodeKeys",
      "outputs": [],
      "payable": false,
      "stateMutability": "nonpayable",
      "type": "function"
    },
    {
      "constant": false,
      "inputs": [
        {
          "name": "_node",
          "type": "bytes32"
        },
        {
          "name": "_xPublicKey",
          "type": "bytes32"
        },
        {
          "name": "_yPublicKey",
          "type": "bytes32"
        },
        {
          "name": "_termDate",
          "type": "uint256"
        }
      ],
      "name": "addKey",
      "outputs": [],
      "payable": false,
      "stateMutability": "nonpayable",
      "type": "function"
    },
    {
      "constant": false,
      "inputs": [
        {
          "name": "_node",
          "type": "bytes32"
        },
        {
          "name": "_index",
          "type": "uint256"
        }
      ],
      "name": "revokeKey",
      "outputs": [],
      "payable": false,
      "stateMutability": "nonpayable",
      "type": "function"
    },
    {
      "constant": true,
      "inputs": [
        {
          "name": "_node",
          "type": "bytes32"
        }
      ],
      "name": "nodeKeys",
      "outputs": [
        {
          "name": "",
          "type": "string"
        }
      ],
      "payable": false,
      "stateMutability": "view",
      "type": "function"
    },
    {
      "constant": true,
      "inputs": [
        {
          "name": "_node",
          "type": "bytes32"
        }
      ],
      "name": "currentSigningKeyIndex",
      "outputs": [
        {
          "name": "",
          "type": "uint256"
        }
      ],
      "payable": false,
      "stateMutability": "view",
      "type": "function"
    },
    {
      "constant": true,
      "inputs": [
        {
          "name": "_node",
          "type": "bytes32"
        },
        {
          "name": "_index",
          "type": "uint256"
        }
      ],
      "name": "currentSigningKey",
      "outputs": [
        {
          "name": "",
          "type": "bytes32"
        },
        {
          "name": "",
          "type": "bytes32"
        },
        {
          "name": "",
          "type": "uint256"
        },
        {
          "name": "",
          "type": "uint256"
        },
        {
          "name": "",
          "type": "bool"
        }
      ],
      "payable": false,
      "stateMutability": "view",
      "type": "function"
    },
    {
      "constant": true,
      "inputs": [
        {
          "name": "_node",
          "type": "bytes32"
        }
      ],
      "name": "signingKeysLength",
      "outputs": [
        {
          "name": "",
          "type": "uint256"
        }
      ],
      "payable": false,
      "stateMutability": "view",
      "type": "function"
    },
    {
      "constant": true,
      "inputs": [
        {
          "name": "_interfaceID",
          "type": "bytes4"
        }
      ],
      "name": "supportsInterface",
      "outputs": [
        {
          "name": "",
          "type": "bool"
        }
      ],
      "payable": false,
      "stateMutability": "pure",
      "type": "function"
    }
  ],
  "bytecode": "0x608060405234801561001057600080fd5b50604051602080612e938339810180604052810190808051906020019092919050505080806000806101000a81548173ffffffffffffffffffffffffffffffffffffffff021916908373ffffffffffffffffffffffffffffffffffffffff1602179055505033600260006101000a81548173ffffffffffffffffffffffffffffffffffffffff021916908373ffffffffffffffffffffffffffffffffffffffff16021790555050612dcd806100c66000396000f30060806040526004361061013e576000357c0100000000000000000000000000000000000000000000000000000000900463ffffffff16806301ffc9a71461014357806310f13a8c146101a7578063157c8f0a146102645780632203ab56146102a957806329cd62ea146103645780632dff6941146103b15780633b3b57de146103fe57806359d1d43c1461046f5780635bbf2e8e1461055f578063623195b0146105b6578063691f34311461063757806377372213146106e15780638da5cb5b146107585780638ebb091c146107af5780639d1fe1ba14610859578063aa4cb547146108d0578063ad4c423a14610947578063b21d608b146109c6578063c3d014d614610a0b578063c869023314610a4a578063ca7c78eb14610aa6578063d5fa2b0014610ae1578063e89401a114610b32578063f2fde38b14610bdc575b600080fd5b34801561014f57600080fd5b5061018d60048036038101908080357bffffffffffffffffffffffffffffffffffffffffffffffffffffffff19169060200190929190505050610c1f565b604051808215151515815260200191505060405180910390f35b3480156101b357600080fd5b506102626004803603810190808035600019169060200190929190803590602001908201803590602001908080601f0160208091040260200160405190810160405280939291908181526020018383808284378201915050505050509192919290803590602001908201803590602001908080601f0160208091040260200160405190810160405280939291908181526020018383808284378201915050505050509192919290505050610d07565b005b34801561027057600080fd5b506102936004803603810190808035600019169060200190929190505050610fc4565b6040518082815260200191505060405180910390f35b3480156102b557600080fd5b506102e2600480360381019080803560001916906020019092919080359060200190929190505050610fef565b6040518083815260200180602001828103825283818151815260200191508051906020019080838360005b8381101561032857808201518184015260208101905061030d565b50505050905090810190601f1680156103555780820380516001836020036101000a031916815260200191505b50935050505060405180910390f35b34801561037057600080fd5b506103af600480360381019080803560001916906020019092919080356000191690602001909291908035600019169060200190929190505050611132565b005b3480156103bd57600080fd5b506103e060048036038101908080356000191690602001909291905050506112f7565b60405180826000191660001916815260200191505060405180910390f35b34801561040a57600080fd5b5061042d600480360381019080803560001916906020019092919050505061131f565b604051808273ffffffffffffffffffffffffffffffffffffffff1673ffffffffffffffffffffffffffffffffffffffff16815260200191505060405180910390f35b34801561047b57600080fd5b506104e46004803603810190808035600019169060200190929190803590602001908201803590602001908080601f0160208091040260200160405190810160405280939291908181526020018383808284378201915050505050509192919290505050611367565b6040518080602001828103825283818151815260200191508051906020019080838360005b83811015610524578082015181840152602081019050610509565b50505050905090810190601f1680156105515780820380516001836020036101000a031916815260200191505b509250505060405180910390f35b34801561056b57600080fd5b506105b460048036038101908080356000191690602001909291908035600019169060200190929190803560001916906020019092919080359060200190929190505050611491565b005b3480156105c257600080fd5b50610635600480360381019080803560001916906020019092919080359060200190929190803590602001908201803590602001908080601f016020809104026020016040519081016040528093929190818152602001838380828437820191505050505050919291929050505061174c565b005b34801561064357600080fd5b5061066660048036038101908080356000191690602001909291905050506118e9565b6040518080602001828103825283818151815260200191508051906020019080838360005b838110156106a657808201518184015260208101905061068b565b50505050905090810190601f1680156106d35780820380516001836020036101000a031916815260200191505b509250505060405180910390f35b3480156106ed57600080fd5b506107566004803603810190808035600019169060200190929190803590602001908201803590602001908080601f01602080910402602001604051908101604052809392919081815260200183838082843782019150505050505091929192905050506119a9565b005b34801561076457600080fd5b5061076d611b8f565b604051808273ffffffffffffffffffffffffffffffffffffffff1673ffffffffffffffffffffffffffffffffffffffff16815260200191505060405180910390f35b3480156107bb57600080fd5b506107de6004803603810190808035600019169060200190929190505050611bb5565b6040518080602001828103825283818151815260200191508051906020019080838360005b8381101561081e578082015181840152602081019050610803565b50505050905090810190601f16801561084b5780820380516001836020036101000a031916815260200191505b509250505060405180910390f35b34801561086557600080fd5b506108ce6004803603810190808035600019169060200190929190803590602001908201803590602001908080601f0160208091040260200160405190810160405280939291908181526020018383808284378201915050505050509192919290505050611c75565b005b3480156108dc57600080fd5b506109456004803603810190808035600019169060200190929190803590602001908201803590602001908080601f0160208091040260200160405190810160405280939291908181526020018383808284378201915050505050509192919290505050611e5b565b005b34801561095357600080fd5b50610980600480360381019080803560001916906020019092919080359060200190929190505050612041565b6040518086600019166000191681526020018560001916600019168152602001848152602001838152602001821515151581526020019550505050505060405180910390f35b3480156109d257600080fd5b506109f560048036038101908080356000191690602001909291905050506120c6565b6040518082815260200191505060405180910390f35b348015610a1757600080fd5b50610a48600480360381019080803560001916906020019092919080356000191690602001909291905050506120ee565b005b348015610a5657600080fd5b50610a79600480360381019080803560001916906020019092919050505061226b565b60405180836000191660001916815260200182600019166000191681526020019250505060405180910390f35b348015610ab257600080fd5b50610adf6004803603810190808035600019169060200190929190803590602001909291905050506122bb565b005b348015610aed57600080fd5b50610b306004803603810190808035600019169060200190929190803573ffffffffffffffffffffffffffffffffffffffff1690602001909291905050506124b6565b005b348015610b3e57600080fd5b50610b61600480360381019080803560001916906020019092919050505061268d565b6040518080602001828103825283818151815260200191508051906020019080838360005b83811015610ba1578082015181840152602081019050610b86565b50505050905090810190601f168015610bce5780820380516001836020036101000a031916815260200191505b509250505060405180910390f35b348015610be857600080fd5b50610c1d600480360381019080803573ffffffffffffffffffffffffffffffffffffffff16906020019092919050505061274d565b005b6000610c2a826127b5565b80610c955750638ebb091c7c0100000000000000000000000000000000000000000000000000000000027bffffffffffffffffffffffffffffffffffffffffffffffffffffffff1916827bffffffffffffffffffffffffffffffffffffffffffffffffffffffff1916145b80610d005750639beefbde7c0100000000000000000000000000000000000000000000000000000000027bffffffffffffffffffffffffffffffffffffffffffffffffffffffff1916827bffffffffffffffffffffffffffffffffffffffffffffffffffffffff1916145b9050919050565b823373ffffffffffffffffffffffffffffffffffffffff166000809054906101000a900473ffffffffffffffffffffffffffffffffffffffff1673ffffffffffffffffffffffffffffffffffffffff166302571be3836040518263ffffffff167c0100000000000000000000000000000000000000000000000000000000028152600401808260001916600019168152602001915050602060405180830381600087803b158015610db757600080fd5b505af1158015610dcb573d6000803e3d6000fd5b505050506040513d6020811015610de157600080fd5b810190808051906020019092919050505073ffffffffffffffffffffffffffffffffffffffff16141515610e1457600080fd5b81600160008660001916600019168152602001908152602001600020600501846040518082805190602001908083835b602083101515610e695780518252602082019150602081019050602083039250610e44565b6001836020036101000a03801982511681845116808217855250505050505090500191505090815260200160405180910390209080519060200190610eaf929190612c0b565b5083600019167fd8c9334b1a9c2f9da342a0a2b32629c1a229b6445dad78947f674b44444a75508485604051808060200180602001838103835285818151815260200191508051906020019080838360005b83811015610f1c578082015181840152602081019050610f01565b50505050905090810190601f168015610f495780820380516001836020036101000a031916815260200191505b50838103825284818151815260200191508051906020019080838360005b83811015610f82578082015181840152602081019050610f67565b50505050905090810190601f168015610faf5780820380516001836020036101000a031916815260200191505b5094505050505060405180910390a250505050565b6000600360008360001916600019168152602001908152602001600020600201805490509050919050565b6000606060006001600086600019166000191681526020019081526020016000209050600192505b83831115156111255760008484161415801561105c57506000816006016000858152602001908152602001600020805460018160011615610100020316600290049050115b15611116578060060160008481526020019081526020016000208054600181600116156101000203166002900480601f01602080910402602001604051908101604052809291908181526020018280546001816001161561010002031660029004801561110a5780601f106110df5761010080835404028352916020019161110a565b820191906000526020600020905b8154815290600101906020018083116110ed57829003601f168201915b5050505050915061112a565b6001839060020a029250611017565b600092505b509250929050565b823373ffffffffffffffffffffffffffffffffffffffff166000809054906101000a900473ffffffffffffffffffffffffffffffffffffffff1673ffffffffffffffffffffffffffffffffffffffff166302571be3836040518263ffffffff167c0100000000000000000000000000000000000000000000000000000000028152600401808260001916600019168152602001915050602060405180830381600087803b1580156111e257600080fd5b505af11580156111f6573d6000803e3d6000fd5b505050506040513d602081101561120c57600080fd5b810190808051906020019092919050505073ffffffffffffffffffffffffffffffffffffffff1614151561123f57600080fd5b6040805190810160405280846000191681526020018360001916815250600160008660001916600019168152602001908152602001600020600301600082015181600001906000191690556020820151816001019060001916905590505083600019167f1d6f5e03d3f63eb58751986629a5439baee5079ff04f345becb66e23eb154e46848460405180836000191660001916815260200182600019166000191681526020019250505060405180910390a250505050565b6000600160008360001916600019168152602001908152602001600020600101549050919050565b600060016000836000191660001916815260200190815260200160002060000160009054906101000a900473ffffffffffffffffffffffffffffffffffffffff169050919050565b6060600160008460001916600019168152602001908152602001600020600501826040518082805190602001908083835b6020831015156113bd5780518252602082019150602081019050602083039250611398565b6001836020036101000a03801982511681845116808217855250505050505090500191505090815260200160405180910390208054600181600116156101000203166002900480601f0160208091040260200160405190810160405280929190818152602001828054600181600116156101000203166002900480156114845780601f1061145957610100808354040283529160200191611484565b820191906000526020600020905b81548152906001019060200180831161146757829003601f168201915b5050505050905092915050565b611499612c8b565b6114a1612cab565b853373ffffffffffffffffffffffffffffffffffffffff166000809054906101000a900473ffffffffffffffffffffffffffffffffffffffff1673ffffffffffffffffffffffffffffffffffffffff166302571be3836040518263ffffffff167c0100000000000000000000000000000000000000000000000000000000028152600401808260001916600019168152602001915050602060405180830381600087803b15801561155157600080fd5b505af1158015611565573d6000803e3d6000fd5b505050506040513d602081101561157b57600080fd5b810190808051906020019092919050505073ffffffffffffffffffffffffffffffffffffffff161415156115ae57600080fd5b60408051908101604052808760001916815260200186600019168152509250608060405190810160405280848152602001428152602001858152602001600015158152509150600360008860001916600019168152602001908152602001600020600201829080600181540180825580915050906001820390600052602060002090600502016000909192909190915060008201518160000160008201518160000190600019169055602082015181600101906000191690555050602082015181600201556040820151816003015560608201518160040160006101000a81548160ff021916908315150217905550505050600160036000896000191660001916815260200190815260200160002060020180549050036003600089600019166000191681526020019081526020016000206001018190555086600019167f9c59af6270510188c900ded3a96dfab36ba4ed0b149b1fb6c944f08ee2a8d73e8787876040518084600019166000191681526020018360001916600019168152602001828152602001935050505060405180910390a250505050505050565b823373ffffffffffffffffffffffffffffffffffffffff166000809054906101000a900473ffffffffffffffffffffffffffffffffffffffff1673ffffffffffffffffffffffffffffffffffffffff166302571be3836040518263ffffffff167c0100000000000000000000000000000000000000000000000000000000028152600401808260001916600019168152602001915050602060405180830381600087803b1580156117fc57600080fd5b505af1158015611810573d6000803e3d6000fd5b505050506040513d602081101561182657600080fd5b810190808051906020019092919050505073ffffffffffffffffffffffffffffffffffffffff1614151561185957600080fd5b600083600185031614151561186d57600080fd5b81600160008660001916600019168152602001908152602001600020600601600085815260200190815260200160002090805190602001906118b0929190612cdc565b508284600019167faa121bbeef5f32f5961a2a28966e769023910fc9479059ee3495d4c1a696efe360405160405180910390a350505050565b60606001600083600019166000191681526020019081526020016000206002018054600181600116156101000203166002900480601f01602080910402602001604051908101604052809291908181526020018280546001816001161561010002031660029004801561199d5780601f106119725761010080835404028352916020019161199d565b820191906000526020600020905b81548152906001019060200180831161198057829003601f168201915b50505050509050919050565b813373ffffffffffffffffffffffffffffffffffffffff166000809054906101000a900473ffffffffffffffffffffffffffffffffffffffff1673ffffffffffffffffffffffffffffffffffffffff166302571be3836040518263ffffffff167c0100000000000000000000000000000000000000000000000000000000028152600401808260001916600019168152602001915050602060405180830381600087803b158015611a5957600080fd5b505af1158015611a6d573d6000803e3d6000fd5b505050506040513d6020811015611a8357600080fd5b810190808051906020019092919050505073ffffffffffffffffffffffffffffffffffffffff16141515611ab657600080fd5b816001600085600019166000191681526020019081526020016000206002019080519060200190611ae8929190612c0b565b5082600019167fb7d29e911041e8d9b843369e890bcb72c9388692ba48b65ac54e7214c4c348f7836040518080602001828103825283818151815260200191508051906020019080838360005b83811015611b50578082015181840152602081019050611b35565b50505050905090810190601f168015611b7d5780820380516001836020036101000a031916815260200191505b509250505060405180910390a2505050565b600260009054906101000a900473ffffffffffffffffffffffffffffffffffffffff1681565b60606003600083600019166000191681526020019081526020016000206000018054600181600116156101000203166002900480601f016020809104026020016040519081016040528092919081815260200182805460018160011615610100020316600290048015611c695780601f10611c3e57610100808354040283529160200191611c69565b820191906000526020600020905b815481529060010190602001808311611c4c57829003601f168201915b50505050509050919050565b813373ffffffffffffffffffffffffffffffffffffffff166000809054906101000a900473ffffffffffffffffffffffffffffffffffffffff1673ffffffffffffffffffffffffffffffffffffffff166302571be3836040518263ffffffff167c0100000000000000000000000000000000000000000000000000000000028152600401808260001916600019168152602001915050602060405180830381600087803b158015611d2557600080fd5b505af1158015611d39573d6000803e3d6000fd5b505050506040513d6020811015611d4f57600080fd5b810190808051906020019092919050505073ffffffffffffffffffffffffffffffffffffffff16141515611d8257600080fd5b816003600085600019166000191681526020019081526020016000206000019080519060200190611db4929190612c0b565b5082600019167fc2b1344fc42c542bbd32d069d2fbdc50e520600e26363898f17faf71302bcfd7836040518080602001828103825283818151815260200191508051906020019080838360005b83811015611e1c578082015181840152602081019050611e01565b50505050905090810190601f168015611e495780820380516001836020036101000a031916815260200191505b509250505060405180910390a2505050565b813373ffffffffffffffffffffffffffffffffffffffff166000809054906101000a900473ffffffffffffffffffffffffffffffffffffffff1673ffffffffffffffffffffffffffffffffffffffff166302571be3836040518263ffffffff167c0100000000000000000000000000000000000000000000000000000000028152600401808260001916600019168152602001915050602060405180830381600087803b158015611f0b57600080fd5b505af1158015611f1f573d6000803e3d6000fd5b505050506040513d6020811015611f3557600080fd5b810190808051906020019092919050505073ffffffffffffffffffffffffffffffffffffffff16141515611f6857600080fd5b816001600085600019166000191681526020019081526020016000206007019080519060200190611f9a929190612cdc565b5082600019167fc0b0fc07269fc2749adada3221c095a1d2187b2d075b51c915857b520f3a5021836040518080602001828103825283818151815260200191508051906020019080838360005b83811015612002578082015181840152602081019050611fe7565b50505050905090810190601f16801561202f5780820380516001836020036101000a031916815260200191505b509250505060405180910390a2505050565b6000806000806000806003600089600019166000191681526020019081526020016000206002018781548110151561207557fe5b9060005260206000209060050201905080600001600001548160000160010154826002015483600301548460040160009054906101000a900460ff1695509550955095509550509295509295909350565b6000600360008360001916600019168152602001908152602001600020600101549050919050565b813373ffffffffffffffffffffffffffffffffffffffff166000809054906101000a900473ffffffffffffffffffffffffffffffffffffffff1673ffffffffffffffffffffffffffffffffffffffff166302571be3836040518263ffffffff167c0100000000000000000000000000000000000000000000000000000000028152600401808260001916600019168152602001915050602060405180830381600087803b15801561219e57600080fd5b505af11580156121b2573d6000803e3d6000fd5b505050506040513d60208110156121c857600080fd5b810190808051906020019092919050505073ffffffffffffffffffffffffffffffffffffffff161415156121fb57600080fd5b81600160008560001916600019168152602001908152602001600020600101816000191690555082600019167f0424b6fe0d9c3bdbece0e7879dc241bb0c22e900be8b6c168b4ee08bd9bf83bc8360405180826000191660001916815260200191505060405180910390a2505050565b600080600160008460001916600019168152602001908152602001600020600301600001546001600085600019166000191681526020019081526020016000206003016001015491509150915091565b813373ffffffffffffffffffffffffffffffffffffffff16600260009054906101000a900473ffffffffffffffffffffffffffffffffffffffff1673ffffffffffffffffffffffffffffffffffffffff16148061241557503373ffffffffffffffffffffffffffffffffffffffff166000809054906101000a900473ffffffffffffffffffffffffffffffffffffffff1673ffffffffffffffffffffffffffffffffffffffff166302571be3836040518263ffffffff167c0100000000000000000000000000000000000000000000000000000000028152600401808260001916600019168152602001915050602060405180830381600087803b1580156123c257600080fd5b505af11580156123d6573d6000803e3d6000fd5b505050506040513d60208110156123ec57600080fd5b810190808051906020019092919050505073ffffffffffffffffffffffffffffffffffffffff16145b151561242057600080fd5b60016003600085600019166000191681526020019081526020016000206002018381548110151561244d57fe5b906000526020600020906005020160040160006101000a81548160ff02191690831515021790555082600019167fc1936e70cf22a98c018e75b3e7bb0623d8e772ff8de1a5e10fddd9b8098ea6b9836040518082815260200191505060405180910390a2505050565b813373ffffffffffffffffffffffffffffffffffffffff166000809054906101000a900473ffffffffffffffffffffffffffffffffffffffff1673ffffffffffffffffffffffffffffffffffffffff166302571be3836040518263ffffffff167c0100000000000000000000000000000000000000000000000000000000028152600401808260001916600019168152602001915050602060405180830381600087803b15801561256657600080fd5b505af115801561257a573d6000803e3d6000fd5b505050506040513d602081101561259057600080fd5b810190808051906020019092919050505073ffffffffffffffffffffffffffffffffffffffff161415156125c357600080fd5b8160016000856000191660001916815260200190815260200160002060000160006101000a81548173ffffffffffffffffffffffffffffffffffffffff021916908373ffffffffffffffffffffffffffffffffffffffff16021790555082600019167f52d7d861f09ab3d26239d492e8968629f95e9e318cf0b73bfddc441522a15fd283604051808273ffffffffffffffffffffffffffffffffffffffff1673ffffffffffffffffffffffffffffffffffffffff16815260200191505060405180910390a2505050565b60606001600083600019166000191681526020019081526020016000206007018054600181600116156101000203166002900480601f0160208091040260200160405190810160405280929190818152602001828054600181600116156101000203166002900480156127415780601f1061271657610100808354040283529160200191612741565b820191906000526020600020905b81548152906001019060200180831161272457829003601f168201915b50505050509050919050565b600260009054906101000a900473ffffffffffffffffffffffffffffffffffffffff1673ffffffffffffffffffffffffffffffffffffffff163373ffffffffffffffffffffffffffffffffffffffff161415156127a957600080fd5b6127b281612b0f565b50565b6000633b3b57de7c0100000000000000000000000000000000000000000000000000000000027bffffffffffffffffffffffffffffffffffffffffffffffffffffffff1916827bffffffffffffffffffffffffffffffffffffffffffffffffffffffff19161480612886575063d8389dc57c0100000000000000000000000000000000000000000000000000000000027bffffffffffffffffffffffffffffffffffffffffffffffffffffffff1916827bffffffffffffffffffffffffffffffffffffffffffffffffffffffff1916145b806128f1575063691f34317c0100000000000000000000000000000000000000000000000000000000027bffffffffffffffffffffffffffffffffffffffffffffffffffffffff1916827bffffffffffffffffffffffffffffffffffffffffffffffffffffffff1916145b8061295c5750632203ab567c0100000000000000000000000000000000000000000000000000000000027bffffffffffffffffffffffffffffffffffffffffffffffffffffffff1916827bffffffffffffffffffffffffffffffffffffffffffffffffffffffff1916145b806129c7575063c86902337c0100000000000000000000000000000000000000000000000000000000027bffffffffffffffffffffffffffffffffffffffffffffffffffffffff1916827bffffffffffffffffffffffffffffffffffffffffffffffffffffffff1916145b80612a3257506359d1d43c7c0100000000000000000000000000000000000000000000000000000000027bffffffffffffffffffffffffffffffffffffffffffffffffffffffff1916827bffffffffffffffffffffffffffffffffffffffffffffffffffffffff1916145b80612a9d575063e89401a17c0100000000000000000000000000000000000000000000000000000000027bffffffffffffffffffffffffffffffffffffffffffffffffffffffff1916827bffffffffffffffffffffffffffffffffffffffffffffffffffffffff1916145b80612b0857506301ffc9a77c0100000000000000000000000000000000000000000000000000000000027bffffffffffffffffffffffffffffffffffffffffffffffffffffffff1916827bffffffffffffffffffffffffffffffffffffffffffffffffffffffff1916145b9050919050565b600073ffffffffffffffffffffffffffffffffffffffff168173ffffffffffffffffffffffffffffffffffffffff1614151515612b4b57600080fd5b8073ffffffffffffffffffffffffffffffffffffffff16600260009054906101000a900473ffffffffffffffffffffffffffffffffffffffff1673ffffffffffffffffffffffffffffffffffffffff167f8be0079c531659141344cd1fd0a4f28419497f9722a3daafe3b4186f6b6457e060405160405180910390a380600260006101000a81548173ffffffffffffffffffffffffffffffffffffffff021916908373ffffffffffffffffffffffffffffffffffffffff16021790555050565b828054600181600116156101000203166002900490600052602060002090601f016020900481019282601f10612c4c57805160ff1916838001178555612c7a565b82800160010185558215612c7a579182015b82811115612c79578251825591602001919060010190612c5e565b5b509050612c879190612d5c565b5090565b604080519081016040528060008019168152602001600080191681525090565b60a060405190810160405280612cbf612d81565b815260200160008152602001600081526020016000151581525090565b828054600181600116156101000203166002900490600052602060002090601f016020900481019282601f10612d1d57805160ff1916838001178555612d4b565b82800160010185558215612d4b579182015b82811115612d4a578251825591602001919060010190612d2f565b5b509050612d589190612d5c565b5090565b612d7e91905b80821115612d7a576000816000905550600101612d62565b5090565b90565b6040805190810160405280600080191681526020016000801916815250905600a165627a7a72305820f4062b285574afb090fdf9d90b7cebd699a9f832bab0e3197c8ac756469ead4c0029",
  "source": "pragma solidity ^0.4.24;\n\nimport \"../lib/PublicResolver.sol\";\nimport \"../lib/Ownable.sol\";\n\n/**\n * A resolver managed by a company with functional data of a company.\n */\ncontract KomgoResolver is PublicResolver, Ownable {\n\n    bytes4 constant NODE_KEYS_INTERFACE_ID = 0x8ebb091c;\n    bytes4 constant SIGNING_KEYS_INTERFACE_ID = 0x9beefbde;\n\n    event NodeKeysChanged(bytes32 indexed _node, string _nodeKeys);\n    event SigningKeyAdded(bytes32 indexed _node, bytes32 _xPublicKey, bytes32 _yPublicKey, uint _termDate);\n    event SigningKeyRevoked(bytes32 indexed _node, uint _index);\n\n    struct Key {\n        PublicKey publicKey;\n        uint effDate;\n        uint termDate;\n        bool revoked;\n    }\n\n    struct KomgoRecord {\n        string nodeKeys;\n        uint currentSigningKeyIndex;\n        Key[] signingKeys;\n    }\n\n    mapping (bytes32 => KomgoRecord) komgoRecords;\n\n    modifier komgoOrOwner(bytes32 _node) {\n        require(\n            owner == msg.sender ||\n            ens.owner(_node) == msg.sender);\n        _;\n    }\n\n    constructor(ENS _ensAddr) PublicResolver(_ensAddr) public {}\n\n    /**\n     * Sets the node keys associated with an ENS node. This will be in JSON format.\n     * May only be called from the owner of that node in the ENS registry.\n     * @param _node The node to update.\n     * @param _nodeKeys The node keys in JSON array format.\n     */\n    function setNodeKeys(bytes32 _node, string _nodeKeys) public only_owner(_node) {\n        komgoRecords[_node].nodeKeys = _nodeKeys;\n        emit NodeKeysChanged(_node, _nodeKeys);\n    }\n\n    /**\n     * Adds a new signing key associated with an ENS node. Increases the pointer of the current signing key\n     * May only be called by the owner of that node in the ENS registry.\n     * @param _node The node to update.\n     * @param _xPublicKey lower 32 bytes of the public key to add.\n     * @param _yPublicKey higher 32 bytes of the public key to add.\n     * @param _termDate Termination date of the key to add.\n     */\n    function addKey(bytes32 _node, bytes32 _xPublicKey, bytes32 _yPublicKey, uint _termDate) public only_owner(_node) {\n        PublicKey memory publicKey = PublicKey(_xPublicKey, _yPublicKey);\n        Key memory key = Key(publicKey, now, _termDate, false);\n        komgoRecords[_node].signingKeys.push(key);\n        komgoRecords[_node].currentSigningKeyIndex = komgoRecords[_node].signingKeys.length-1;\n        emit SigningKeyAdded(_node, _xPublicKey, _yPublicKey, _termDate);\n    }\n\n    /**\n     * Revokes a signing key (past present or future)\n     * May only be called by the owner of that node in the ENS registry or by Komgo.\n     * @param _node The node to update.\n     * @param _index The index of the signing key to revoke.\n     */\n    function revokeKey(bytes32 _node, uint _index) public komgoOrOwner(_node) {\n        komgoRecords[_node].signingKeys[_index].revoked = true;\n        emit SigningKeyRevoked(_node, _index);\n    }\n\n    /**\n     * Returns the node keys associated with an ENS node.\n     * @param _node The ENS node to query.\n     * @return a string formatted as a JSON array of the associated nodes public keys.\n     */\n    function nodeKeys(bytes32 _node) public view returns (string) {\n        return komgoRecords[_node].nodeKeys;\n    }\n\n    /**\n     * Returns the current signing key index associated with an ENS node.\n     * @param _node The ENS node to query.\n     * @return a index of the current signing key.\n     */\n    function currentSigningKeyIndex(bytes32 _node) public view returns (uint) {\n        return komgoRecords[_node].currentSigningKeyIndex;\n    }\n\n    /**\n     * Returns the current signing key associated with an ENS node.\n     * @param _node The ENS node to query.\n     * @param _index The index of the signing key.\n     * @return The signing key. Lower 32 bytes of public key, higher 32 bytes of public key, effDate, termDate, revoked\n     */\n    function currentSigningKey(bytes32 _node, uint _index) public view returns (bytes32, bytes32, uint, uint, bool) {\n        Key storage key = komgoRecords[_node].signingKeys[_index];\n        return (key.publicKey.x, key.publicKey.y, key.effDate, key.termDate, key.revoked);\n    }\n\n    /**\n     * Returns the size of the signing keys associated with an ENS node.\n     * @param _node The ENS node to query.\n     * @return The length of the signing keys array.\n     */\n    function signingKeysLength(bytes32 _node) public view returns (uint) {\n        return komgoRecords[_node].signingKeys.length;\n    }\n\n    /**\n     * Returns true if the resolver implements the interface specified by the provided hash.\n     * @param _interfaceID The ID of the interface to check for.\n     * @return True if the contract implements the requested interface.\n     */\n    function supportsInterface(bytes4 _interfaceID) public pure returns (bool) {\n        return super.supportsInterface(_interfaceID) ||\n            _interfaceID == NODE_KEYS_INTERFACE_ID ||\n            _interfaceID == SIGNING_KEYS_INTERFACE_ID;\n    }\n}\n",
  "sourcePath": "/Users/edsonalcala/Consensys/komgo-member/komgo-member-blockchain/contracts/companyregistry/KomgoResolver.sol",
  "compiler": {
    "name": "solc",
    "version": "0.4.24+commit.e67f0147.Emscripten.clang"
  },
  "schemaVersion": "2.0.1",
  "updatedAt": "2018-07-27T12:32:33.109Z"
}