{
  "contractName": "KomgoRegistrar",
  "abi": [
    {
      "constant": true,
      "inputs": [],
      "name": "rootDomain",
      "outputs": [
        {
          "name": "",
          "type": "bytes32"
        }
      ],
      "payable": false,
      "stateMutability": "view",
      "type": "function"
    },
    {
      "constant": true,
      "inputs": [],
      "name": "metaDomain",
      "outputs": [
        {
          "name": "",
          "type": "bytes32"
        }
      ],
      "payable": false,
      "stateMutability": "view",
      "type": "function"
    },
    {
      "constant": true,
      "inputs": [],
      "name": "owner",
      "outputs": [
        {
          "name": "",
          "type": "address"
        }
      ],
      "payable": false,
      "stateMutability": "view",
      "type": "function"
    },
    {
      "constant": false,
      "inputs": [
        {
          "name": "_newOwner",
          "type": "address"
        }
      ],
      "name": "transferOwnership",
      "outputs": [],
      "payable": false,
      "stateMutability": "nonpayable",
      "type": "function"
    },
    {
      "inputs": [
        {
          "name": "_ensAddr",
          "type": "address"
        },
        {
          "name": "_node",
          "type": "bytes32"
        },
        {
          "name": "_meta",
          "type": "bytes32"
        }
      ],
      "payable": false,
      "stateMutability": "nonpayable",
      "type": "constructor"
    },
    {
      "anonymous": false,
      "inputs": [
        {
          "indexed": true,
          "name": "previousOwner",
          "type": "address"
        },
        {
          "indexed": true,
          "name": "newOwner",
          "type": "address"
        }
      ],
      "name": "OwnershipTransferred",
      "type": "event"
    },
    {
      "constant": false,
      "inputs": [
        {
          "name": "_subDomain",
          "type": "bytes32"
        },
        {
          "name": "_nodeOwner",
          "type": "address"
        }
      ],
      "name": "registerTest2",
      "outputs": [],
      "payable": false,
      "stateMutability": "nonpayable",
      "type": "function"
    }
  ],
  "bytecode": "0x608060405234801561001057600080fd5b506040516060806106df833981018060405281019080805190602001909291908051906020019092919080519060200190929190505050336000806101000a81548173ffffffffffffffffffffffffffffffffffffffff021916908373ffffffffffffffffffffffffffffffffffffffff16021790555082600160006101000a81548173ffffffffffffffffffffffffffffffffffffffff021916908373ffffffffffffffffffffffffffffffffffffffff160217905550816002816000191690555080600381600019169055505050506105ef806100f06000396000f30060806040526004361061006d576000357c0100000000000000000000000000000000000000000000000000000000900463ffffffff16806340ff38b214610072578063697a61bc146100a55780638da5cb5b146100d8578063d005a7621461012f578063f2fde38b14610180575b600080fd5b34801561007e57600080fd5b506100876101c3565b60405180826000191660001916815260200191505060405180910390f35b3480156100b157600080fd5b506100ba6101c9565b60405180826000191660001916815260200191505060405180910390f35b3480156100e457600080fd5b506100ed6101cf565b604051808273ffffffffffffffffffffffffffffffffffffffff1673ffffffffffffffffffffffffffffffffffffffff16815260200191505060405180910390f35b34801561013b57600080fd5b5061017e6004803603810190808035600019169060200190929190803573ffffffffffffffffffffffffffffffffffffffff1690602001909291905050506101f4565b005b34801561018c57600080fd5b506101c1600480360381019080803573ffffffffffffffffffffffffffffffffffffffff169060200190929190505050610462565b005b60025481565b60035481565b6000809054906101000a900473ffffffffffffffffffffffffffffffffffffffff1681565b6000809054906101000a900473ffffffffffffffffffffffffffffffffffffffff1673ffffffffffffffffffffffffffffffffffffffff163373ffffffffffffffffffffffffffffffffffffffff1614151561024f57600080fd5b600160009054906101000a900473ffffffffffffffffffffffffffffffffffffffff1673ffffffffffffffffffffffffffffffffffffffff166306ab592360025484846040518463ffffffff167c010000000000000000000000000000000000000000000000000000000002815260040180846000191660001916815260200183600019166000191681526020018273ffffffffffffffffffffffffffffffffffffffff1673ffffffffffffffffffffffffffffffffffffffff1681526020019350505050600060405180830381600087803b15801561032e57600080fd5b505af1158015610342573d6000803e3d6000fd5b50505050600160009054906101000a900473ffffffffffffffffffffffffffffffffffffffff1673ffffffffffffffffffffffffffffffffffffffff166306ab5923600354846000809054906101000a900473ffffffffffffffffffffffffffffffffffffffff166040518463ffffffff167c010000000000000000000000000000000000000000000000000000000002815260040180846000191660001916815260200183600019166000191681526020018273ffffffffffffffffffffffffffffffffffffffff1673ffffffffffffffffffffffffffffffffffffffff1681526020019350505050600060405180830381600087803b15801561044657600080fd5b505af115801561045a573d6000803e3d6000fd5b505050505050565b6000809054906101000a900473ffffffffffffffffffffffffffffffffffffffff1673ffffffffffffffffffffffffffffffffffffffff163373ffffffffffffffffffffffffffffffffffffffff161415156104bd57600080fd5b6104c6816104c9565b50565b600073ffffffffffffffffffffffffffffffffffffffff168173ffffffffffffffffffffffffffffffffffffffff161415151561050557600080fd5b8073ffffffffffffffffffffffffffffffffffffffff166000809054906101000a900473ffffffffffffffffffffffffffffffffffffffff1673ffffffffffffffffffffffffffffffffffffffff167f8be0079c531659141344cd1fd0a4f28419497f9722a3daafe3b4186f6b6457e060405160405180910390a3806000806101000a81548173ffffffffffffffffffffffffffffffffffffffff021916908373ffffffffffffffffffffffffffffffffffffffff160217905550505600a165627a7a72305820d3017caa2315c79984b3c1746306cf753037e6526d24a53b5fc3383a605b7f370029",
  "source": "pragma solidity ^0.4.24;\n\nimport \"../lib/ENS.sol\";\nimport \"../lib/Ownable.sol\";\n\n/**\n * @title The KomgoRegistrar contract\n * @author Edson Alcala\n * @notice This contract registers all the domains and subdomains of Komgo \n*/\ncontract KomgoRegistrar is Ownable{\n    ENS ens;\n    \n    bytes32 public rootDomain;\n    bytes32 public metaDomain;\n\n    constructor(address _ensAddr, bytes32 _node, bytes32 _meta) public {\n        ens = ENS(_ensAddr);\n        rootDomain = _node;\n        metaDomain = _meta;\n    }\n\n    /**\n     * @dev It receives a subdomain and call the ENS registry to set the subNodeOwner\n     */\n    function registerTest2(bytes32 _subDomain, address _nodeOwner) public onlyOwner {\n        ens.setSubnodeOwner(rootDomain, _subDomain, _nodeOwner);\n        ens.setSubnodeOwner(metaDomain, _subDomain, owner);\n    }\n}\n",
  "sourcePath": "/Users/edsonalcala/Consensys/komgo-member/komgo-member-blockchain/contracts/companyregistry/KomgoRegistrar.sol",
  "compiler": {
    "name": "solc",
    "version": "0.4.24+commit.e67f0147.Emscripten.clang"
  },
  "schemaVersion": "2.0.1",
  "updatedAt": "2018-07-27T12:32:33.098Z"
}