{
  "contractName": "KomgoOnboarder",
  "abi": [
    {
      "constant": true,
      "inputs": [
        {
          "name": "",
          "type": "uint256"
        }
      ],
      "name": "companiesNodes",
      "outputs": [
        {
          "name": "",
          "type": "bytes32"
        }
      ],
      "payable": false,
      "stateMutability": "view",
      "type": "function"
    },
    {
      "constant": true,
      "inputs": [],
      "name": "KOMGO_META_RESOLVER_NODE",
      "outputs": [
        {
          "name": "",
          "type": "bytes32"
        }
      ],
      "payable": false,
      "stateMutability": "view",
      "type": "function"
    },
    {
      "constant": true,
      "inputs": [],
      "name": "owner",
      "outputs": [
        {
          "name": "",
          "type": "address"
        }
      ],
      "payable": false,
      "stateMutability": "view",
      "type": "function"
    },
    {
      "constant": false,
      "inputs": [
        {
          "name": "_newOwner",
          "type": "address"
        }
      ],
      "name": "transferOwnership",
      "outputs": [],
      "payable": false,
      "stateMutability": "nonpayable",
      "type": "function"
    },
    {
      "inputs": [
        {
          "name": "_ensAddress",
          "type": "address"
        }
      ],
      "payable": false,
      "stateMutability": "nonpayable",
      "type": "constructor"
    },
    {
      "anonymous": false,
      "inputs": [
        {
          "indexed": true,
          "name": "previousOwner",
          "type": "address"
        },
        {
          "indexed": true,
          "name": "newOwner",
          "type": "address"
        }
      ],
      "name": "OwnershipTransferred",
      "type": "event"
    },
    {
      "constant": false,
      "inputs": [
        {
          "components": [
            {
              "name": "node",
              "type": "bytes32"
            },
            {
              "components": [
                {
                  "components": [
                    {
                      "components": [
                        {
                          "name": "x",
                          "type": "bytes32"
                        },
                        {
                          "name": "y",
                          "type": "bytes32"
                        }
                      ],
                      "name": "publicKey",
                      "type": "tuple"
                    },
                    {
                      "name": "effDate",
                      "type": "uint256"
                    },
                    {
                      "name": "termDate",
                      "type": "uint256"
                    },
                    {
                      "name": "current",
                      "type": "bool"
                    },
                    {
                      "name": "revoked",
                      "type": "bool"
                    }
                  ],
                  "name": "ethPubKeys",
                  "type": "tuple[]"
                }
              ],
              "name": "record",
              "type": "tuple"
            }
          ],
          "name": "_onboardInformation",
          "type": "tuple"
        }
      ],
      "name": "addCompanyOnboardingInformation",
      "outputs": [
        {
          "name": "",
          "type": "bool"
        }
      ],
      "payable": false,
      "stateMutability": "nonpayable",
      "type": "function"
    }
  ],
  "bytecode": "0x60806040527f91d1777781884d03a6757a803996e38de2a42967fb37eeaca72729271025a9e260010260019060001916905534801561003d57600080fd5b50604051602080610c79833981018060405261005c9190810190610208565b6000336000806101000a81548173ffffffffffffffffffffffffffffffffffffffff021916908373ffffffffffffffffffffffffffffffffffffffff16021790555081600260006101000a81548173ffffffffffffffffffffffffffffffffffffffff021916908373ffffffffffffffffffffffffffffffffffffffff160217905550600260009054906101000a900473ffffffffffffffffffffffffffffffffffffffff1673ffffffffffffffffffffffffffffffffffffffff16630178b8bf6001546040518263ffffffff167c01000000000000000000000000000000000000000000000000000000000281526004016101589190610240565b602060405180830381600087803b15801561017257600080fd5b505af1158015610186573d6000803e3d6000fd5b505050506040513d601f19601f820116820180604052506101aa9190810190610208565b905080600360006101000a81548173ffffffffffffffffffffffffffffffffffffffff021916908373ffffffffffffffffffffffffffffffffffffffff1602179055505050610285565b60006102008251610265565b905092915050565b60006020828403121561021a57600080fd5b6000610228848285016101f4565b91505092915050565b61023a8161025b565b82525050565b60006020820190506102556000830184610231565b92915050565b6000819050919050565b600073ffffffffffffffffffffffffffffffffffffffff82169050919050565b6109e5806102946000396000f30060806040526004361061006d576000357c0100000000000000000000000000000000000000000000000000000000900463ffffffff168063333a8307146100725780636d1fe089146100af5780638da5cb5b146100da578063f2fde38b14610105578063fbf245cc1461012e575b600080fd5b34801561007e57600080fd5b50610099600480360361009491908101906107e2565b61016b565b6040516100a691906108a5565b60405180910390f35b3480156100bb57600080fd5b506100c461018e565b6040516100d191906108a5565b60405180910390f35b3480156100e657600080fd5b506100ef610194565b6040516100fc919061086f565b60405180910390f35b34801561011157600080fd5b5061012c60048036036101279190810190610778565b6101b9565b005b34801561013a57600080fd5b50610155600480360361015091908101906107a1565b610220565b604051610162919061088a565b60405180910390f35b60068181548110151561017a57fe5b906000526020600020016000915090505481565b60015481565b6000809054906101000a900473ffffffffffffffffffffffffffffffffffffffff1681565b6000809054906101000a900473ffffffffffffffffffffffffffffffffffffffff1673ffffffffffffffffffffffffffffffffffffffff163373ffffffffffffffffffffffffffffffffffffffff1614151561021457600080fd5b61021d81610421565b50565b600080600080846000015192506000151560056000856000191660001916815260200190815260200160002060009054906101000a900460ff16151514151561029e576040517f08c379a0000000000000000000000000000000000000000000000000000000008152600401610295906108c0565b60405180910390fd5b846020015160000151519150600090505b818110156103af57600460008460001916600019168152602001908152602001600020600001856020015160000151828151811015156102eb57fe5b906020019060200201519080600181540180825580915050906001820390600052602060002090600502016000909192909190915060008201518160000160008201518160000190600019169055602082015181600101906000191690555050602082015181600201556040820151816003015560608201518160040160006101000a81548160ff02191690831515021790555060808201518160040160016101000a81548160ff02191690831515021790555050505080806001019150506102af565b600160056000856000191660001916815260200190815260200160002060006101000a81548160ff021916908315150217905550600683908060018154018082558091505090600182039060005260206000200160009091929091909150906000191690555060019350505050919050565b600073ffffffffffffffffffffffffffffffffffffffff168173ffffffffffffffffffffffffffffffffffffffff161415151561045d57600080fd5b8073ffffffffffffffffffffffffffffffffffffffff166000809054906101000a900473ffffffffffffffffffffffffffffffffffffffff1673ffffffffffffffffffffffffffffffffffffffff167f8be0079c531659141344cd1fd0a4f28419497f9722a3daafe3b4186f6b6457e060405160405180910390a3806000806101000a81548173ffffffffffffffffffffffffffffffffffffffff021916908373ffffffffffffffffffffffffffffffffffffffff16021790555050565b6000610527823561096b565b905092915050565b600082601f830112151561054257600080fd5b81356105556105508261090d565b6108e0565b915081818352602084019350602081019050838560c084028201111561057a57600080fd5b60005b838110156105aa578161059088826105dc565b845260208401935060c0830192505060018101905061057d565b5050505092915050565b60006105c0823561098b565b905092915050565b60006105d48235610997565b905092915050565b600060c082840312156105ee57600080fd5b6105f860a06108e0565b90506000610608848285016106c8565b600083015250604061061c84828501610764565b602083015250606061063084828501610764565b6040830152506080610644848285016105b4565b60608301525060a0610658848285016105b4565b60808301525092915050565b60006040828403121561067657600080fd5b61068060406108e0565b90506000610690848285016105c8565b600083015250602082013567ffffffffffffffff8111156106b057600080fd5b6106bc84828501610714565b60208301525092915050565b6000604082840312156106da57600080fd5b6106e460406108e0565b905060006106f4848285016105c8565b6000830152506020610708848285016105c8565b60208301525092915050565b60006020828403121561072657600080fd5b61073060206108e0565b9050600082013567ffffffffffffffff81111561074c57600080fd5b6107588482850161052f565b60008301525092915050565b600061077082356109a1565b905092915050565b60006020828403121561078a57600080fd5b60006107988482850161051b565b91505092915050565b6000602082840312156107b357600080fd5b600082013567ffffffffffffffff8111156107cd57600080fd5b6107d984828501610664565b91505092915050565b6000602082840312156107f457600080fd5b600061080284828501610764565b91505092915050565b61081481610935565b82525050565b61082381610955565b82525050565b61083281610961565b82525050565b6000601582527f436f6d70616e7920616c726561647920616464656400000000000000000000006020830152604082019050919050565b6000602082019050610884600083018461080b565b92915050565b600060208201905061089f600083018461081a565b92915050565b60006020820190506108ba6000830184610829565b92915050565b600060208201905081810360008301526108d981610838565b9050919050565b6000604051905081810181811067ffffffffffffffff8211171561090357600080fd5b8060405250919050565b600067ffffffffffffffff82111561092457600080fd5b602082029050602081019050919050565b600073ffffffffffffffffffffffffffffffffffffffff82169050919050565b60008115159050919050565b6000819050919050565b600073ffffffffffffffffffffffffffffffffffffffff82169050919050565b60008115159050919050565b6000819050919050565b60008190509190505600a265627a7a723058205e0fe8795df51d7295b3c5e22bc93819099bbfe6d7b0d4fc637ec55dbb0d65126c6578706572696d656e74616cf50037",
  "source": "pragma solidity >=0.4.24;\n\npragma experimental ABIEncoderV2;\n\nimport \"../lib/Ownable.sol\";\nimport \"../ens/ENS.sol\";\nimport \"../companyregistry/KomgoMetaResolver.sol\";\n\ncontract KomgoOnboarder is Ownable {\n    // namehash komgo meta resolver\n    // TODO, change this\n    bytes32 public KOMGO_META_RESOLVER_NODE = 0x91d1777781884d03a6757a803996e38de2a42967fb37eeaca72729271025a9e2;\n    \n    struct PublicKey {\n        bytes32 x;\n        bytes32 y;\n    }\n\n    struct EthPubKey {\n        PublicKey publicKey;\n        uint effDate;\n        uint termDate;\n        bool current;\n        bool revoked;\n    }\n    \n    struct Entry {\n        string key;\n        string value;\n    }\n\n    struct Record {\n        EthPubKey[] ethPubKeys;\n        // string jsonValues;\n        // Entry[] entries;\n    }\n\n    struct OnboardingInformation {\n        bytes32 node;\n        Record record;\n    }\n\n    ENS ens;\n\n    KomgoMetaResolver komgoMetaResolver;\n\n    mapping(bytes32 => Record) companiesInformation;\n\n    mapping(bytes32 => bool) companiesRegistered;\n\n    bytes32[] public companiesNodes;\n\n    constructor(address _ensAddress) public {\n        ens = ENS(_ensAddress);\n        // get meta resolver instance\n        address resolverAddress = ens.resolver(KOMGO_META_RESOLVER_NODE);\n        komgoMetaResolver = KomgoMetaResolver(resolverAddress);\n    }\n\n    function addCompanyOnboardingInformation(OnboardingInformation memory _onboardInformation) public returns(bool){\n         \n        bytes32 companyNode = _onboardInformation.node;\n        require(companiesRegistered[companyNode] == false, \"Company already added\");\n        //companiesInformation[companyNode].reverseNode = _onboardInformation.metaRecord.reverseNode;\n        // companiesInformation[companyNode].jsonValues = _onboardInformation.record.jsonValues;\n        uint256 numberOfKeys = _onboardInformation.record.ethPubKeys.length;\n        for(uint256 i = 0; i < numberOfKeys; i++){\n            companiesInformation[companyNode].ethPubKeys.push(_onboardInformation.record.ethPubKeys[i]);\n        }\n        companiesRegistered[companyNode] = true;\n        companiesNodes.push(companyNode);\n        return true;\n    }\n\n    // function addCompaniesOnboardingInformation(OnboardingInformation[] memory _onboardInformation) public returns(bool){\n    //     require(_onboardInformation.length > 0, \"Invalid number of company information\");\n    //     uint256 arrayLength = _onboardInformation.length;\n    //     for (uint256 i = 0; i < arrayLength; i++) {\n    //         addCompanyOnboardingInformation(_onboardInformation[i]);\n    //     }\n    //     return true;\n    // }\n\n    // function onboardAll() public view returns(bool){\n    //     for (uint256 i = 0; i < companiesNodes.length; i++) {\n    //         // Record storage record = companiesInformation[companiesNodes[i]];\n\n    //         // setText, then set pub key\n\n    //         // get KomgoMetaResolver Interface and use it to cast method calls, given the address\n    //         // that ens returns (call ENS)\n            \n    //         // but for that case, call meta resolver,\n    //         // call all methods..\n    //         // done\n    //     }\n    //     return true;\n    // }\n\n    // function onBoardCompany(bytes32 _companyNode) public view returns(bool){\n    //     // TODO\n    //     // get company information\n    //     // put into the KomgoMetaResolver\n    // }\n}",
  "sourcePath": "/Users/edsonalcala/Consensys/smart-contracts-last/smart-contracts/contracts/onboard/KomgoOnboarder.sol",
  "compiler": {
    "name": "solc",
    "version": "0.4.24+commit.e67f0147.Emscripten.clang"
  },
  "schemaVersion": "3.0.6",
  "updatedAt": "2019-05-07T12:03:56.455Z",
  "devdoc": {
    "methods": {
      "transferOwnership(address)": {
        "details": "Allows the current owner to transfer control of the contract to a newOwner.",
        "params": {
          "_newOwner": "The address to transfer ownership to."
        }
      }
    }
  },
  "userdoc": {
    "methods": {}
  }
}